:040000008031CF2854
:100008007E14803120007F08F600911E2C282300E2
:100018009D1C10281D121D161908F20021006F08DA
:10002800B13E86008701720881000130F200720833
:10003800EF076F08FF3EB13E8600870101080A3AC4
:10004800031D2928FD01FD0A2A28FD01200091121F
:10005800111C3D282100111C3D28FF30200097006D
:10006800CD30960011106E0803193D2821009D140B
:1000780020002100110E890C890C0139F2002000A2
:10008800110E890C890C0139720503197F28333048
:1000980079067A04031965287908013EF2000030D0
:1000A8007A3DF3007C087306031D5C287B08720602
:1000B800003003190130F400F5017408F7007508E1
:1000C8006F287C087B04003003190130F200F3012B
:1000D8007208F7007308F80078087704031D7D2874
:1000E8006E0803197D2821001C088E3100268031F6
:1000F8002000200011138B1DA8282700961DA82872
:10010800961120000D0CF200F20C720C0139F3006C
:100118002700140CF400F40C740C0139730503194E
:1001280098282000EE01EE0A2700150CF200F20CC8
:10013800720C0139F300031020008D1D03140030E8
:10014800093D7305031DEE018B1DCA282700931C6A
:10015800CA28931020000C0C0139F2002700110C5A
:10016800013972050319BB282100B001B00A270024
:10017800120C0139F200031020008C1C031400300B
:10018800093D72050319CA282100B001760820002C
:10019800FF007E1009008031D128F901FA01FB0126
:1001A800FC01FD01EE01A0308400003085004330E1
:1001B8008D315D258031A0308400013085003330D9
:1001C8008D315D2580312030840002308500443037
:1001D8008D315D2580318731FE278031EF00F23087
:1001E800840087308500E3308600003087000C30BB
:1001F8008D3157258031973084008E30850020302E
:100208008600013087002A308D3157257E10200066
:1002180085319D2D433086000130870032308400BF
:100228000030850007302000AF0016001A00AF0B21
:100238001929210024082000BC00210025082000DD
:10024800BD00210026082000BE002100270820004C
:10025800BF00210028082000C00021002908200034
:10026800C100C201C3014308803AAF0080302F02A9
:10027800031D402906304202031860292000420865
:10028800323E860087014208B13E8400850100089D
:10029800010603195129EF01EF0A0130C2070030A6
:1002A800C33D4308803AAF0080302F02031D5E290A
:1002B80006304202031C422920004208013EC200C7
:1002C8000030433DC3004208B13E86008701010863
:1002D8002C3A0319022A0A30AF002F08A00042085E
:1002E800B13E860087010108D03E8D31DB25813182
:1002F8002000B0003008BC000130C2070030C33D08
:100308004208B13E860087010108D03EAF002F08A1
:10031800BC070130C2070030C33D0A30AF002F08C8
:10032800A0004208B13E860087010108D03E8D3109
:10033800DB2581312000B0003008BD000130C20744
:100348000030C33D4208B13E860087010108D03E17
:10035800AF002F08BD070130C2070030C33D420877
:10036800013EC2000030433DC3000A30AF002F08F1
:10037800A0004208B13E860087010108D03E8D31B9
:10038800DB2581312000B0003008BE000130C207F3
:100398000030C33D4208B13E860087010108D03EC7
:1003A800AF002F08BE070130C2070030C33D6430DC
:1003B800A6000030A7003E08AF00B0012F08A0003B
:1003C8003008A1003C30A2000030A3008E3179260D
:1003D800813120002108A901A9072008A801A80740
:1003E8008F31AC27813120002608B1003108BE00CA
:1003F8004208023EC2000030433DC3004208013EAD
:10040800C2000030433DC3004208B13E8600870168
:1004180001082C3A03191C2A4208B13E86008701BC
:100428000108AF002F08B9000130C2070030C33DF2
:100438004208013EC2000030433DC3004208B13EBD
:100448008600870101082C3A0319D22A6430AF00CC
:100458002F08A0004208B13E860087010108D03E5F
:100468008D31DB2581312000B0003008BF0001301C
:10047800C2070030C33D0A30AF002F08A000420871
:10048800B13E860087010108D03E8D31DB258131E0
:100498002000B0003008BF070130C2070030C33D5C
:1004A8004208B13E860087010108D03EAF002F0800
:1004B800BF070130C2070030C33D0A30AF002F0824
:1004C800A0004208B13E860087010108D03E8D3168
:1004D800DB2581312000B0003008C0000130C207A0
:1004E8000030C33D4208B13E860087010108D03E76
:1004F800AF002F08C0070130C2070030C33D4208D3
:10050800013EC2000030433DC3000A30AF002F084F
:10051800A0004208B13E860087010108D03E8D3117
:10052800DB2581312000B0003008C1000130C2074E
:100538000030C33D4208B13E860087010108D03E25
:10054800AF002F08C1070130C2070030C33D643037
:10055800A6000030A7004108AF00B0012F08A00096
:100568003008A1003C30A2000030A3008E3179266B
:10057800813120002108A901A9072008A801A8079E
:100588008F31AC27813120002608B1003108C10025
:100598004208023EC2000030433DC3004208013E0B
:1005A800C2000030433DC3004208B13E86008701C7
:1005B80001082C3A0319EC2A4208B13E860087014B
:1005C8000108AF002F08BA000130C2070030C33D50
:1005D8004208013EC2000030433DC3004308B0005A
:1005E8004208AF00C20A0319C30A2F08B13E8600A9
:1005F800870101082C3A031DF22A4208B13E860001
:1006080087010108AF002F08BB003B08413A031DD2
:100618000F2BEF01112BEF01EF0AEF08031D080064
:10062800C201C3014308803AAF0080302F02031D86
:100638001F2B033042020318492B200042083C3E7E
:10064800860087010108AF004208AA3E860087019C
:100658002F08810042083F3E860087010108AF004D
:100668004208AD3E860087012F0881000130C2078D
:100678000030C33D4308803AAF0080302F02031D8D
:10068800472B03304202031C212B20003908AF00FE
:100698002F082100EE0020003A08AF002F082100A3
:1006A800ED00080020000C160030C1000030C0002A
:1006B8000030BF000330BE00BA01BB01FB01FC01E2
:1006C800F901FA014108AA004008A9003F08A8005A
:1006D8003E08A7008731502783312000BC01BD01A7
:1006E8003D08803AB50080303502031D7D2B03306C
:1006F8003C020318982B20003C08AD3E8600870179
:1007080001088E312F26833101302000BC070030CC
:10071800BD3D3D08803AB50080303502031D962B5B
:1007280003303C02031C7F2B21006E088E312F26DC
:1007380083312000BC01BD013D08803AB5008030FE
:100748003502031DA92B03303C020318C42B2000DB
:100758003C08AA3E8600870101088E312F26833186
:1007680001302000BC070030BD3D3D08803AB5008F
:1007780080303502031DC22B03303C02031CAB2B17
:1007880021006D088E312F268331200011102100A1
:10079800111420001814062C3B08803AB50081304B
:1007A8003502031DD92B00303A02031CEB2B220023
:1007B8000E152000BA01BB014108AA004008A90093
:1007C8003F08A8003E08A7008731502783317A08E0
:1007D8007C06031DF12B79087B060319062C8E3144
:1007E800172683318D31ED25833101302000BE0776
:1007F8000030BF3D0030C03D0030C13D0130BA0778
:100808000030BB3D2000EE08031D122C7A087C0640
:10081800031D102C79087B060319262C4108803A01
:10082800B5000030803A3502031D242C0230400206
:10083800031D242C00303F02031D242C00303E02EF
:10084800031CD02B22000E152100111020001810B7
:100858001A30B600F830B500B50B302CB60B302C7A
:10086800000000302000AA000030A9000030A800D5
:100878000030A70087315027833120004108803A93
:10088800B5000030803A3502031D542C0230400276
:10089800031D542C00303F02031D542C00303E022F
:1008A800031C602C01308D31ED258331FF308D31F3
:1008B800ED258331FF308C2C20003E08B5003F0821
:1008C800B6004008B7004108B8001030B900B83782
:1008D800B70CB60CB50CB90B6B2C35088D31ED2562
:1008E800833120003E08B5003F08B6004008B70035
:1008F8004108B8000830B900B837B70CB60CB50CC9
:10090800B90B802C35088D31ED25833120003E0848
:100918008D31ED2522000E15FB01FC01F901FA01CC
:1009280020000C1208002000BB003030B40034084E
:10093800BA002F08B5002E08B400AE0A0319AF0A92
:1009480034088400350885000008B6003608C00061
:10095800C0080319982D4008253A0319BF2C4008F0
:10096800B4003B0886008701340881000130B400D8
:100978003408BB079D2CB801F02C3A088600870183
:100988000108BC000030BD000130B4003408BA07CB
:100998003D083C04031DD42C2F30BC008830BD001A
:1009A8003C0884003D0885000008003803199D2C88
:1009B8003C0884003D0885000008B4003B08860018
:1009C8008701340881000130BC070030BD3D01308B
:1009D800B4003408BB07D42C2F08B5002E08B40087
:1009E800AE0A0319AF0A34088400350885000008E8
:1009F800C000003A0319982D643A03190A2D0D3ADC
:100A080003190A2D1A3A0319C12C9D2C3A0886009D
:100A18008701403FBC00413FBD000230B4003408AC
:100A2800BA07BD1F202D0330B4003408B804BC0930
:100A3800BD09BC0A0319BD0AC001C00A4008053A2D
:100A48000319452D4008B400B501B435B50D003083
:100A5800340784008830353D8500003FB600013FEB
:100A6800B70037083D02031D3B2D36083C02031C26
:100A7800452D0130B4003408C0074008053A031D6D
:100A8800262D380803390319542D2D30B4003B089E
:100A980086008701340881000130B4003408BB07A0
:100AA8004008B4003408B900FF30B4003408B9076E
:100AB8003908FF3A03199D2C0A30A8000030A90014
:100AC8003908B400B501B435B50D003034078400D9
:100AD8008830353D8500003FA000013FA1003D085A
:100AE800A301A3073C08A201A2078F31752784310F
:100AF80020002108AB01AB072008AA01AA078F3103
:100B08004627843120002808303EB6003608C00049
:100B18004008B4003B088600870134088100013092
:100B2800B4003408BB07582D3B08860087018101B3
:100B380008008D316A2585318E31EC2685318E315C
:100B4800602685318D31C92585318D3188258531DE
:100B58008D31632585318D31972585310A30200007
:100B6800EA006A08ED000130EA006A082100EF0097
:100B78008B1720008E1BC32D8F31192785318631A5
:100B8800482685312400951220008E1222000E1569
:100B980020008C1CDE2D0D140330EC000830EB0017
:100BA8007830EA00EA0BD62DEB0BD62DEC0BD62DC0
:100BB80020000D106E080319EB2D8D31C9258531E4
:100BC8008331562385312400951220008E128E31F0
:100BD800C126853120006F080319112E22000D0847
:100BE800FF3920382000EA000D086A0600396A0635
:100BF8008D0022000D08FF39EF392000EA000D08AA
:100C08006A0600396A068D000E306D0203182E2E12
:100C18000130EA006A08ED072E2E22000D08FF3980
:100C280010382000EA000D086A0600396A068D00AF
:100C380022000D08FF39DF392000EA000D086A0696
:100C480000396A068D000A30EA006A08ED008F3123
:100C5800192785312000EE08031DCA2D2100300810
:100C680003193B2E0A308D31B7258531CA2D200056
:100C78006F080319442E6D088D31B7258531CA2DAB
:100C88008E3147268531CA2DE33086000030870033
:100C98005A3084000030850006302000C10016005C
:100CA8001A00C10B532E21006C082000E30021001C
:100CB8006B082000E20021006A082000E100210002
:100CC80069082000E000E401E5016508803AC100F8
:100CD80080304102031D722E063064020318B22EC2
:100CE80015302000C3004B30C200D130C100C10B09
:100CF8007B2EC20B7B2EC30B7B2E00000A302000FC
:100D0800AE008830AF005A30C1004108B0006030F2
:100D1800C2004208B1006508B301B3076408B20114
:100D2800B207443084319724863116302000A80059
:100D38000030A90044308631DA268631013020009F
:100D4800E4070030E53D6508803AC1008030410283
:100D5800031DB02E06306402031C742E15302000CB
:100D6800C3004B30C200D130C100C10BB92EC20B39
:100D7800B92EC30BB92E00001D302000AE008830FC
:100D8800AF005A30C1004108B0006030C2004208CC
:100D9800B100443084319724863116302000A800F1
:100DA8000030A90044308631DA2608002000B4005B
:100DB8002908A101A1072808A001A0073408873144
:100DC800B02786312000AA002A08B3003308AA00F9
:100DD8000430AA36890BED2E2A08AB002B08B50083
:100DE80033080F39AA002A08B6000A303502031C56
:100DF800FF2E3730002F3030AD000030AE002D0808
:100E0800AA002A08B5070A303602031C0D2F37300E
:100E18000E2F3030AF000030B0002F08AA002A088B
:100E2800B607B101B2012808FF3EAA00FF30293DEC
:100E3800AB003208803AAC002B08803A2C02031D24
:100E4800272F2A08310203183A2F200031083407C7
:100E5800AA002A088600870101088D31722586318B
:100E680001302000B1070030B23D172F20003508AF
:100E78008D3172258631200036088D3172258631F4
:100E88000D308D31722586310A308D3172258631CB
:100E980023009E1808004C2F20002708AB002808C4
:100EA800AC002908AD002A08AE001030AF00AE37FC
:100EB800AD0CAC0CAB0CAF0B5B2F2B08B0003008A3
:100EC800B1002708AB002808AC002908AD002A08A3
:100ED800AE000830AF00AE37AD0CAC0CAB0CAF0BAE
:100EE8006F2F2B08B0003008B2002708AB002B0882
:100EF800B3008D31A625873101392000AB002B08BE
:100F0800B400B408031D7D2F22000E1106308D3168
:100F1800ED25873122000E158D31A625873102393E
:100F28002000AB002B08B40034080319902F2200CE
:100F38000E1102308D31ED258731200031088D31B9
:100F4800ED258731200032088D31ED2587312000CD
:100F580033088D31ED2508002000A500A401A60165
:100F6800A7012708803AA2002108803A2202031D1F
:100F7800BF2F200826020318EF2F20002608250778
:100F8800A2002208860087010108243A0319EA2FE3
:100F980026082507A20022088600870101082A3AA8
:100FA8000319EA2F26082507A200220886008701D0
:100FB8000108213A0319EA2F26082507A20022086A
:100FC800860087010108A3002308A4060130A607AC
:100FD8000030A73DB52F20002408080024345034E1
:100FE80053345234463400343134303433340034DA
:060FF80045344E340134C3
:10100000013400340A34003464340034E8340334E6
:101010001034273425347334253473342C3430346D
:10102000253464342C34303430342C34303430347F
:101030002C34303430342A3400342534733425349D
:1010400073342C34303431342C34303431342C3447
:10105000303430342C34303430342A3400342834B2
:0C1060006E3475346C346C342934003468
:101AAE00FE0012001E00FE0B582D00346400800153
:101ABE000131890B5E2D003421001708C13914380D
:101ACE009700171008007830210099041908FC3986
:101ADE000238990008002000A00023009E1C742DDF
:101AEE002000200823009A00080024009101141CF5
:101AFE007E2D11082000A0002008A10091112108C0
:101B0E0008003F30200098051808CF39203898007B
:101B1E0018159913FF309700CD3096001814080051
:101B2E0021000E138E1723001E119C0133309B00D3
:101B3E001E131E129E169D171D131D160800220041
:101B4E000E1105308D31ED258D318D317C25200026
:101B5E00A5002508A60022000E1520002608080064
:101B6E002000A1002108A000A00D210017082000D0
:101B7E002006C139200621009700171463002100AA
:101B8E001710080021000E118E110E168E12220053
:101B9E000E15240095121508F0390138950015120E
:101BAE0014179413951608002000A300A201231CFD
:101BBE00E42D2008A1002108A2070310A00D031098
:101BCE00A30CA308031DDE2D220808002000A4008C
:101BDE00240011082000A000A1012008A200210865
:101BEE00A3009111240824009100200091190800EF
:101BFE00FC2DF1007108F0007908A03E860001303E
:101C0E00870070088100333079067A04031D122E86
:101C1E00F901FA0108000130F9070030FA3D080019
:101C2E007B08A03E86000130870001082000A0003E
:101C3E002008A10033307B067C04031D292EFB01F6
:101C4E00FC012D2E0130FB070030FC3D2108080061
:101C5E002000A1002108A0007908A03E86000130D6
:101C6E00870020088100333079067A04031D422E46
:101C7E00F901FA0108000130F9070030FA3D0800B9
:101C8E002000A10121001708C1391C389700171434
:101C9E00592E0130A0002008A1070430210203189C
:101CAE005D2E63002000EE080319502E2100171040
:101CBE00080021000C1423000C1421001E088F397B
:101CCE0050389E00FC309E051E1183309D050F304E
:101CDE009F049E139D171D14200011132100111730
:101CEE000B1708002000A401A501201C822E22083B
:101CFE00A4072308A53D0130A235A30D890B832E21
:101D0E000130A136A00C890B882E21082004031D5A
:101D1E007C2E2508A101A1072408A001A007080018
:101D2E002434503453345234463431343034333412
:101D3E002C34303431342C34303431342C3430347F
:101D4E0030342C34303430342A340034243450348B
:101D5E005334523446343134313437342C343134F4
:101D6E0036342A34003424344734503447344C3417
:101D7E004C3400342030860001308700453084001A
:101D8E000030850016302000C40016001A00C40B67
:101D9E00CC2E210091160B178B1720008E1BDA2EDE
:101DAE008F3119278E312100EF0116302000A80047
:101DBE000030A90045308631DA268E317D080319B0
:101DCE00E52EFD0181310E21080021008C14230027
:101DDE008C1027009114921493018B1521008D15F0
:101DEE0023008D1127009515941596018B15210052
:101DFE000C140C158C150C128C120C138C130D105C
:101E0E008D140D110D128D1220000D100D128D124C
:101E1E0023000D108D100D110D128D1221000E10BC
:101E2E008E10080020000C131530A2004B30A100BC
:101E3E00D130A000A00B212FA10B212FA20B212FFF
:101E4E00000020000C170330A2000830A1007830EB
:101E5E00A000A00B302FA10B302FA20B302F200093
:101E6E000C131530A2004B30A100D130A000A00BF6
:101E7E003E2FA10B3E2FA20B3E2F0000080020008C
:101E8E002908280403196E2FAD01AD0AA91B592F7D
:101E9E000130A835A90D890B502F0130AC002C084C
:101EAE00AD074D2F29082B02031D5F2F28082A028C
:101EBE00031C652F2808AA022908AB3B0130A9365E
:101ECE00A80C890B662F0130AD02031D592F2B086C
:101EDE00A901A9072A08A801A80708002000A50142
:101EEE00A601210820040319A52FA701A70AA11BEB
:101EFE008A2F0130A035A10D890B812F0130A4004E
:101F0E002408A7077E2F0130A535A60D890B8B2F30
:101F1E0021082302031D952F20082202031C9C2F4B
:101F2E002008A2022108A33B25140130A136A00CE3
:101F3E00890B9D2F0130A702031D8A2F2608A101B0
:101F4E00A1072508A001A00708002000AC01A71FCB
:101F5E00B72FA609A709A60A0319A70AAC01AC0A4E
:101F6E00A91FC22FA809A909A80A0319A90A013095
:101F7E00AA002A08AC06AD01AE01270826040319F3
:101F8E00F12FAB01AB0AA71BD62F0130A635A70D3B
:101F9E00890BCD2F0130AA002A08AB07CA2F0130BA
:101FAE00AD35AE0D890BD72F27082902031DE12F62
:101FBE0026082802031CE82F2608A8022708A93B9A
:101FCE002D140130A736A60C890BE92F0130AB0278
:101FDE00031DD62F2C080319F92FAD09AE09AD0A32
:101FEE000319AE0A2E08A701A7072D08A601A607FA
:021FFE000800D9
:020000040001F9
:04000E00ECF9FFFE0C
:00000001FF
