:040000008031CD2856
:100008007E14803120007F08F600911E2E282300E0
:100018009D1C10281D121D161908F20021006308E6
:10002800203E860001308700720881000130F2000E
:100038007208E3076308FF3E203E86000130870010
:1000480001080A3A031D2B28FD01FD0A2C28FD0191
:1000580020009112111C3D282100111C3D28FF3061
:1000680020009700CD309600111021005D08031D77
:100078009D142100110E890C890C0139F200200011
:10008800110E890C890C0139720503197B2833304C
:1000980079067A04031965287908013EF2000030D0
:1000A8007A3DF3007C087306031D5C287B08720602
:1000B800003003190130F400F5017408F7007508E1
:1000C8006F287C087B04003003190130F200F3012B
:1000D8007208F7007308F80078087704031D792878
:1000E80021001C088D31F6258031200011138B1D4D
:1000F800A6282700961DA628961120000D0CF200B0
:10010800F20C720C0139F3002700140CF400F40C03
:10011800740C01397305031994282100DD01DD0AE7
:100128002700150CF200F20C720C0139F3000310D1
:1001380020008D1D03140030093D73050319A628FE
:100148002100DD018B1DC8282700931CC8289310A7
:1001580020000C0C0139F2002700110C013972053E
:100168000319B9282100DE01DE0A2700120C013923
:10017800F200031020008C1C03140030093D7205A6
:100188000319C8282100DE0176082000FF007E1030
:1001980009008031CF28F901FA01FB01FC01FD01BA
:1001A800C1308400003085001E308D314F258031EC
:1001B800203084000130850032308D314F25803168
:1001C800A03084000130850033308D314F258031D7
:1001D800583084008E308500A030860000308700BB
:1001E80021308D3149258031E03084008D30850003
:1001F800523086000130870016308D3149257E1037
:10020800200086313D2EAD3086000030870030302A
:1002180084000030850007302000AE0016001A0068
:10022800AE0B1229C1308600003087003A308400B6
:10023800003085000630AE0016001A00AE0B2029EB
:10024800C7308600003087004030840000308500C9
:100258000630AE0016001A00AE0B2E29C601C701E3
:100268004708803AAE0080302E02031D3D29063033
:1002780046020318602920004608303E86008701A0
:100288004608203E84000130850000080106031955
:1002980050292100BE01BE0A01302000C6070030E7
:1002A800C73D4708803AAE0080302E02031D5E2904
:1002B80006304602031C3F2920004608013EC600BE
:1002C8000030473DC7004608203E860001308700C1
:1002D80001082C3A0319342A4608203E86000130CA
:1002E80087000108D03EA000FF3003180030A100AD
:1002F8000A30A2000030A3008731E02781312000B6
:100308002108BB01BB072008BA01BA070130C6079C
:100318000030C73D4608203E8600013087000108AE
:10032800D03EAE00FF3003180030AF002E08BA07E9
:100338002F08BB3D0130C6070030C73D4608203EA8
:100348008600013087000108D03EA000FF30031866
:100358000030A1000A30A2000030A3008731E02756
:10036800813120002108BD01BD072008BC01BC0760
:100378000130C6070030C73D4608203E86000130E0
:1003880087000108D03EAE00FF3003180030AF00F0
:100398002E08BC072F08BD3D0130C6070030C73DF9
:1003A8004608013EC6000030473DC7004608203ECB
:1003B8008600013087000108D03EA000FF300318F6
:1003C8000030A1000A30A2000030A3008731E027E6
:1003D800813120002108BF01BF072008BE01BE07E8
:1003E8000130C6070030C73D4608203E8600013070
:1003F80087000108D03EAE00FF3003180030AF0080
:100408002E08BE072F08BF3D0130C6070030C73D84
:100418006430A6000030A7003F08A101A1073E08EC
:10042800A001A0073C30A2000030A3008731E027DC
:10043800813120002108A901A9072008A801A807DF
:100448008F312727813120002708BF01BF072608E1
:10045800BE01BE074608023EC6000030473DC70041
:100468004608013EC6000030473DC7004608203E0A
:1004780086000130870001082C3A0319502A4608E3
:10048800203E8600013087000108AE002E08B70024
:100498000130C6070030C73D4608013EC60000309F
:1004A800473DC7004608203E860001308700010806
:1004B8002C3A03193F2B4608203E8600013087005E
:1004C8000108D03EA000FF3003180030A1006430BE
:1004D800A2000030A3008731E027813120002108E5
:1004E800C101C1072008C001C0070130C60700309C
:1004F800C73D4608203E8600013087000108D03EEF
:10050800A000FF3003180030A1000A30A20000301C
:10051800A3008731E027813120002008C007210887
:10052800C13D0130C6070030C73D4608203E860061
:10053800013087000108D03EAE00FF3003180030BC
:10054800AF002E08C0072F08C13D0130C607003094
:10055800C73D4608203E8600013087000108D03E8E
:10056800A000FF3003180030A1000A30A2000030BC
:10057800A3008731E027813120002108C301C30788
:100588002008C201C2070130C6070030C73D46082F
:10059800203E8600013087000108D03EAE00FF30C3
:1005A80003180030AF002E08C2072F08C33D0130E2
:1005B800C6070030C73D4608013EC6000030473D2B
:1005C800C7004608203E8600013087000108D03E5B
:1005D800A000FF3003180030A1000A30A20000304C
:1005E800A3008731E027813120002108C501C50714
:1005F8002008C401C4070130C6070030C73D4608BB
:10060800203E8600013087000108D03EAE00FF3052
:1006180003180030AF002E08C4072F08C53D01306D
:10062800C6070030C73D6430A6000030A700450863
:10063800A101A1074408A001A0073C30A200003096
:10064800A3008731E027813120002108A901A907EB
:100658002008A801A8078F31272781312000270803
:10066800C501C5072608C401C4074608023EC600DE
:100678000030473DC7004608013EC6000030473DF0
:10068800C7004608203E86000130870001082C3A42
:1006980003195B2B4608203E8600013087000108BD
:1006A800AE002E08B8000130C6070030C73D460826
:1006B800013EC6000030473DC7004708AF00460866
:1006C800AE00C60A0319C70A2E08203E860001306C
:1006D800870001082C3A031D612B4608203E86003E
:1006E800013087000108AE002E08B9003908413AE8
:1006F800031D812B2100BE01842B2100BE01BE0AEF
:10070800BE08031D08002000C601C7014708803A3B
:10071800AE0080302E02031D932B033046020318CF
:10072800BD2B200046353A3E860087014635CD3E32
:1007380084008501403F803F413F813F4635403E30
:10074800860087014635D33E84008501403F803FBF
:10075800413F813F0130C6070030C73D4708803A16
:10076800AE0080302E02031DBB2B03304602031C53
:10077800952B20003708AE002E082100C00020006D
:100788003808AE002E082100BF0008000030200005
:10079800BF000030BE000030BD001230BC00123077
:1007A800BA000030BB00FB01FC01F901FA013F0867
:1007B800AA003E08A9003D08A8003C08A7008F3100
:1007C800A02783312000C001C1014108803AB5004B
:1007D80080303502031DF22B0330400203181A2C17
:1007E80020004035D33E8600870101088D31CD2594
:1007F800833120004035D33E86008701403FB50055
:10080800413FB60036088D31CD25833101302000B7
:10081800C0070030C13D4108803AB500803035023C
:10082800031D182C03304002031CF42B2100400840
:100838008D31CD2583312000C001C1014108803AA6
:10084800B50080303502031D2B2C033040020318FD
:10085800532C20004035CD3E8600870101088D319C
:10086800CD25833120004035CD3E86008701403FAD
:10087800B500413FB60036088D31CD2583310130B2
:100888002000C0070030C13D4108803AB5008030E3
:100898003502031D512C03304002031C2D2C21006E
:1008A8003F088D31CD25833120001110210011140E
:1008B8002000181421005D080319AF2C20003F0800
:1008C800803AB5000030803A3502031D752C02309D
:1008D8003E02031D752C00303D02031D752C0030AF
:1008E8003C020318AE2C3B08803AB5008130350233
:1008F800031D802C00303A02031C922C22000E1596
:100908002000BA01BB013F08AA003E08A9003D0823
:10091800A8003C08A7008F31A02783317A087C06FD
:10092800031D982C79087B0603195E2C8E310D2641
:1009380083318D31CD25833101302000BC07003053
:10094800BD3D0030BE3D0030BF3D0130BA0700302C
:10095800BB3D5E2C210022000E1521001110200045
:1009680018101A30B600F830B500B50BB92CB60B14
:10097800B92C000000302000AA000030A900003087
:10098800A8000E30A7008F31A027833120003F0830
:10099800803AB5000030803A3502031DDD2C023064
:1009A8003E02031DDD2C00303D02031DDD2C00300E
:1009B8003C02031CED2CFF308D31CD258331FF30F7
:1009C8008D31CD25833101308D31CD2583310030F6
:1009D8002E2D20003C088D31CD25833120003C0888
:1009E800B5003D08B6003E08B7003F08B80008301B
:1009F800B900B837B70CB60CB50CB90BFD2C3508D7
:100A08008D31CD25833120003C08B5003D08B60066
:100A18003E08B7003F08B8001030B900B837B70C27
:100A2800B60CB50CB90B122D35088D31CD25833197
:100A380020003C08B5003D08B6003E08B7003F0856
:100A4800B8001830B900B837B70CB60CB50CB90BEC
:100A5800272D35088D31CD2522000E15FB01FC010F
:100A6800F901FA0108002000C1003630BA003A083E
:100A7800C0003508BB003408BA00B40A0319B50A27
:100A88003A0884003B0885000008BC003C08C60002
:100A9800C6080319382E4608253A03195F2D46085B
:100AA800BA004108860087013A0881000130BA007F
:100AB8003A08C1073D2DBE01902D400886008701E8
:100AC8000108C2000030C3000130BA003A08C0076C
:100AD80043084204031D742D2F30C2008830C30020
:100AE80042088400430885000008003803193D2D9A
:100AF80042088400430885000008BA0041088600BF
:100B080087013A0881000130C2070030C33D013037
:100B1800BA003A08C107742D3508BB003408BA007A
:100B2800B40A0319B50A3A0884003B08850000088E
:100B3800C600003A0319382E643A0319AA2D0D3A53
:100B48000319AA2D1A3A0319612D3D2D4008860074
:100B58008701403FC200413FC3000230BA003A0853
:100B6800C007C31FC02D0330BA003A08BE04C2092B
:100B7800C309C20A0319C30AC601C60A4608053AC8
:100B88000319E52D4608BA00BB01BA35BB0D003084
:100B98003A07840088303B3D8500003FBC00013F98
:100BA800BD003D084302031DDB2D3C084202031C27
:100BB800E52D0130BA003A08C6074608053A031D74
:100BC800C62D3E0803390319F42D2D30BA0041080B
:100BD800860087013A0881000130BA003A08C10747
:100BE8004608BA003A08BF00FF30BA003A08BF0703
:100BF8003F08FF3A03193D2D0A30AE000030AF0020
:100C08003F08BA00BB01BA35BB0D00303A07840073
:100C180088303B3D8500003FA600013FA700430800
:100C2800A901A9074208A801A8078F3127278531FC
:100C380020002708B101B1072608B001B0078E319E
:100C4800C626853120002E08303EBC003C08C60070
:100C58004608BA004108860087013A088100013039
:100C6800BA003A08C107F82D4108860087018101BA
:100C780008008D315C2586318E319B2686318E3178
:100C8800252686318D31BB2586318D317A258631F1
:100C98008D31552586318D318925863101302100E8
:100CA800DF005F08E3008B178E31792686318631A5
:100CB800DC26863121005E080319732E20008C146F
:100CC80003302100E1000830E0007830DF00DF0B5E
:100CD8006B2EE00B6B2EE10B6B2E20008C1021008D
:100CE8005D0803197B2E8331CA23863121008E319A
:100CF800F526863121003E080319A82E22000D088A
:100D0800FF3920382100DF0020000D0821005F0690
:100D180000395F0620008D0022000D08FF39EF39E9
:100D28002100DF0020000D0821005F0600395F0662
:100D380020008D001230210062020318CC2E0130F1
:100D4800DF005F08E207CC2E22000D08FF391038BB
:100D58002100DF0020000D0821005F0600395F0632
:100D680020008D0022000D08FF39DF392100DF0047
:100D780020000D0821005F0600395F0620008D0065
:100D88000A302100DF005F08E2008E3179268631C3
:100D98002100DD08031D5E2E3E080319D82E6208C7
:100DA8008D31A92586315E2E8E313E2686315E2E06
:100DB800B430860000308700603084000030850041
:100DC80006302000C70016001A00C70BE72E2100C6
:100DD8003D082000E90021003C082000E80021002F
:100DE8003B082000E70021003A082000E600EA015D
:100DF800EB016B08803AC70080304702031D062FBD
:100E080006306A020318462F15302000C9004B30FF
:100E1800C800D130C700C70B0F2FC80B0F2FC90B45
:100E28000F2F00000A302000B4008830B500603071
:100E3800C7004708B6006630C8004808B7006B0806
:100E4800B901B9076A08B801B8074A3085313725AA
:100E5800863116302000A8000030A9004A308731BA
:100E68006E27863101302000EA070030EB3D6B0821
:100E7800803AC70080304702031D442F06306A02BB
:100E8800031C082F15302000C9004B30C800D13092
:100E9800C700C70B4D2FC80B4D2FC90B4D2F000096
:100EA8001D302000B4008830B5006030C700470806
:100EB800B6006630C8004808B7004A308531372583
:100EC800863116302000A8000030A9004A3087314A
:100ED8006E2708002000B4002908A101A1072808EE
:100EE800A001A00734088F315E2787312000AA00AF
:100EF8002A08B3003308AA000430AA36890B812FC8
:100F08002A08AB002B08B50033080F39AA002A08B5
:100F1800B6000A303502031C932F3730942F303037
:100F2800AD000030AE002D08AA002A08B5070A3027
:100F38003602031CA12F3730A22F3030AF0000300B
:100F4800B0002F08AA002A08B607B101B201280884
:100F5800FF3EAA00FF30293DAB003208803AAC00C2
:100F68002B08803A2C02031DBB2F2A0831020318D4
:100F7800CE2F200031083407AA002A0886008701EE
:100F880001088D316425873101302000B107003018
:100F9800B23DAB2F200035088D3164258731200004
:100FA80036088D31642587310D308D3164258731C0
:100FB8000A308D31642508002000A401A501201CF9
:100FC800E92F2208A4072308A53D0130A235A30D67
:100FD800890BEA2F0130A136A00C890BEF2F2108CD
:100FE8002004031DE32F2508A101A1072408A0015F
:040FF800A007080046
:10100000013400340A34003464340034E8340334E6
:101010001034273425347334253473342C3430346D
:10102000253464342C34303430342C34303430347F
:101030002C34303430342A3400342534733425349D
:1010400073342C34303431342C34303431342C3447
:10105000303431342C34303430342A3400342834B1
:0C1060006E3475346C346C342934003468
:101A9200FE0012001E00FE0B4A2D0034640080017D
:101AA2000131890B502D003421001708C139143837
:101AB2009700171008007830210099041908FC39A2
:101AC2000238990008002000A00023009E1C662D09
:101AD2002000200823009A00080024009101141C11
:101AE200702D11082000A0002008A10091112108EA
:101AF20008003F30200098051808CF392038980098
:101B020018159913FF309700CD309600181408006D
:101B120021000E138E1723001E119C0133309B00EF
:101B22001E131E129E169D171D131D16080022005D
:101B32000E1505308D31CD258D318D316E2520006C
:101B4200A5002508A60022000E1120002608080084
:101B52002000A1002108A000A00D210017082000EC
:101B62002006C139200621009700171463002100C6
:101B72001710080021000E118E110E168E1222006F
:101B82000E11240095121508F0390138950015122E
:101B920014179413951608002000A40024001108BD
:101BA2002000A000A1012008A2002108A300911199
:101BB200240824009100200091190800DC2D24340F
:101BC20050345334523446343134303433342C3478
:101BD200303431342C34303431342C3430343034E9
:101BE2002C34303430342A340034F1007108F000DF
:101BF2007908A03E860001308700700881003330EA
:101C020079067A04031D082EF901FA010800013051
:101C1200F9070030FA3D08007B08A03E860001303B
:101C2200870001082000A0002008A10033307B06B5
:101C32007C04031D1F2EFB01FC01232E0130FB0738
:101C42000030FC3D2108080021000C1423000C1474
:101C520021001E088F3950389E00FC309E051E114F
:101C620083309D050F309F049E139D171D14200085
:101C72001113210011170B1708002000A1012100E8
:101C82001708C139243897001714512E013020004B
:101C9200A0002008A107043021020318552E63007A
:101CA2002100DD080319472E2100171008002434F3
:101CB20050345334523446343134313437342C3482
:101CC200313436342A3400342434473450344734DF
:101CD2004C344C340034243450345334523446346B
:101CE20000343134303433340034013445344E342A
:101CF20021000C1320000C131530A2004B30A10060
:101D0200D130A000A00B832EA10B832EA20B832E19
:101D1200000020000C170330A2000830A100783028
:101D2200A000A00B922EA10B922EA20B922E2000AD
:101D32000C13080021008C142700911492149301B3
:101D42008B1521008D1523008D11270095159415F3
:101D520096018B1521000C140C158C150C128C128B
:101D62000C138C130D108D140D110D128D122000F9
:101D72000D100D128D1223000D108D100D110D126C
:101D82008D1221000E108E10080020002F082E0444
:101D92000319EE2EB301B30AAF1BD92E0130AE35B3
:101DA200AF0D890BD02E0130B2003208B307CD2E11
:101DB2002F083102031DDF2E2E083002031CE52EF0
:101DC2002E08B0022F08B13B0130AF36AE0C890BA2
:101DD200E62E0130B302031DD92E3108AF01AF0741
:101DE2003008AE01AE07080052308600013087008D
:101DF2004B3084000030850016302000C8001600E9
:101E02001A00C80B002F210091160B178B17E30144
:101E120015302000CA004B30C900D130C800C80BB1
:101E2200102FC90B102FCA0B102F000016302000E4
:101E3200A8000030A9004B3087316E278E317D0813
:101E42000319202FFD018131072108002000AB0179
:101E5200AC01270826040319572FAD01AD0AA71BB1
:101E62003C2F0130A635A70D890B332F0130AA0074
:101E72002A08AD07302F0130AB35AC0D890B3D2F51
:101E820027082902031D472F26082802031C4E2F6C
:101E92002608A8022708A93B2B140130A736A60C56
:101EA200890B4F2F0130AD02031D3C2F2C08A701D7
:101EB200A7072B08A601A60708002000A500A40179
:101EC200A601A7012708803AA2002108803A22022F
:101ED200031D6D2F2008260203189D2F20002608BF
:101EE2002507A2002208860087010108243A031967
:101EF200982F26082507A2002208860087010108DC
:101F02002A3A0319982F26082507A20022088600DC
:101F120087010108213A0319982F26082507A200F4
:101F22002208860087010108A3002308A4060130C5
:101F3200A6070030A73D632F2000240808002000D8
:101F42002708AB002808AC002908AD002A08AE001B
:101F52000830AF00AE37AD0CAC0CAB0CAF0BAB2FF7
:101F62002B08B0003008B1002708AB002808AC00ED
:101F72002908AD002A08AE000430AF00AE37AD0C20
:101F8200AC0CAB0CAF0BBF2F2B08B0003008B2006B
:101F92002708AB002B08B3008D3198258F3101390A
:101FA2002000AB002B08B400B408031DCD2F220083
:101FB2000E1506308D31CD258F3122000E118D3157
:101FC20098258F3102392000AB002B08B400340869
:101FD2000319E02F22000E1502308D31CD258F31ED
:101FE200200031088D31CD258F31200032088D310E
:0E1FF200CD258F31200033088D31CD2508001C
:020000040001F9
:04000E00ECF9FFFE0C
:00000001FF
