:040000008031DF2844
:100008007E14803120007F08F600911E37282300D7
:100018009D1C10281D121D161908F2007D08203E8F
:10002800860001308700720881000130F2007208F2
:10003800FD0732307D02031C26282000EB01EB0A65
:10004800FD0136287D08FF3E203E860001308700EE
:1000580001080A3A031D34282000EB01EB0A362870
:100068002000EB019112111C48282100111C48287E
:10007800FF30200097007130960011106C080319AA
:10008800482821009D1420002100110E890C890C9C
:100098000139F2002000110E890C890C0139720512
:1000A80003198A28333079067A04031970287908E5
:1000B800013EF20000307A3DF3007C087306031D10
:1000C80067287B087206003003190130F400F50137
:1000D8007408F70075087A287C087B040030031937
:1000E8000130F200F3017208F7007308F80078088D
:1000F8007704031D88286C080319882821001C0828
:100108008C31C52480312000200011138B1DB328A9
:100118002700961DB328961120000D0CF200F20C52
:10012800720C0139F3002700140CF400F40C740C61
:10013800013973050319A3282000EC01EC0A2700F4
:10014800150CF200F20C720C0139F30003102000B8
:100158008D1D03140030093D7305031DEC018B1D33
:10016800D3282700931CD328931020000C0C0139A6
:10017800F2002700110C013972050319C628200066
:10018800ED01ED0A2700120C0139F20003102000DE
:100198008C1C03140030093D7205031DED018B1AF8
:1001A8000B1DDA282000E901E90A0B117608200066
:1001B800FF007E1009008031E128F901FA01FB01F6
:1001C800FC01FD01E901EA01EB01EC01ED01DE3082
:1001D8008400003085000A308B31FC2380312030C8
:1001E80084000130850032308B31FC238031A0300F
:1001F80084000130850033308B31FC23803120307E
:1002080084000230850048308B31FC238031023075
:1002180084008C308500633086000030870006300B
:100228008B31F62380310F3084008C308500E83024
:1002380086000030870007308B31F6238031263066
:1002480084008D30850052308600013087001A30D6
:100258008B31F6238031AF3084008C308500D33069
:1002680086000130870016308B31F6237E1020007F
:1002780086313D2E5F3086000130870032308400A1
:100288000030850007302000AF0016001A00AF0BC1
:100298004929210062082000BC00210063082000D1
:1002A800BD00210064082000BE0021006508200070
:1002B800BF00210066082000C00021006708200058
:1002C800C100C201C3014308803AAF0080302F0249
:1002D800031D7029063042020318922920004208A3
:1002E800323E860087014208203E840001308500A6
:1002F8000008010603198329E601E60A080001300F
:10030800C2070030C33D4308803AAF0080302F0257
:10031800031D902906304202031C7229200042085E
:10032800013EC2000030433DC3004208203E860023
:100338000130870001082C3A03193B2A0A30AF0024
:100348002F08A0004208203E8600013087000108DF
:10035800D03E8C318A2481312000B0003008BC00A6
:100368000130C2070030C33D4208203E86000130FC
:1003780087000108D03EAF002F08BC070130C20734
:100388000030C33D0A30AF002F08A0004208203ECD
:100398008600013087000108D03E8C318A248131E3
:1003A8002000B0003008BD000130C2070030C33D56
:1003B8004208203E8600013087000108D03EAF0089
:1003C8002F08BD070130C2070030C33D4208013E77
:1003D800C2000030433DC3000A30AF002F08A00020
:1003E8004208203E8600013087000108D03E8C314B
:1003F8008A2481312000B0003008BE000130C207D5
:100408000030C33D4208203E8600013087000108C5
:10041800D03EAF002F08BE070130C2070030C33DF1
:100428006430A6000030A7003E08AF00B0012F08D6
:10043800A0003008A1003C30A2000030A3008D319C
:100448004025813120002108A901A9072008A80119
:10045800A8078E316026813120002608B1003108B6
:10046800BE004208023EC2000030433DC3004208BD
:10047800013EC2000030433DC3004208203E8600D2
:100488000130870001082C3A0319572A4208203EF8
:100498008600013087000108AF002F08B90001303D
:1004A800C2070030C33D4208013EC2000030433D50
:1004B800C3004208203E86000130870001082C3A1C
:1004C8000319152B6430AF002F08A0004208203E06
:1004D8008600013087000108D03E8C318A248131A2
:1004E8002000B0003008BF000130C2070030C33D13
:1004F8000A30AF002F08A0004208203E86000130D5
:1005080087000108D03E8C318A2481312000B00058
:100518003008BF070130C2070030C33D4208203E03
:100528008600013087000108D03EAF002F08BF07C2
:100538000130C2070030C33D0A30AF002F08A000C9
:100548004208203E8600013087000108D03E8C31E9
:100558008A2481312000B0003008C0000130C20771
:100568000030C33D4208203E860001308700010864
:10057800D03EAF002F08C0070130C2070030C33D8E
:100588004208013EC2000030433DC3000A30AF00BC
:100598002F08A0004208203E86000130870001088D
:1005A800D03E8C318A2481312000B0003008C1004F
:1005B8000130C2070030C33D4208203E86000130AA
:1005C80087000108D03EAF002F08C1070130C207DD
:1005D8000030C33D6430A6000030A7004108AF00DA
:1005E800B0012F08A0003008A1003C30A200003064
:1005F800A3008D314025813120002108A901A907D8
:100608002008A801A8078E3160268131200026081D
:10061800B1003108C1004208023EC2000030433D2B
:10062800C3004208013EC2000030433DC3004208F7
:10063800203E86000130870001082C3A0319312B2F
:100648004208203E8600013087000108AF002F08CD
:10065800BA000130C2070030C33D4208013EC20063
:100668000030433DC3004308B0004208AF00C20A4F
:100678000319C30A2F08203E8600013087000108AD
:100688002C3A031D372B4208203E86000130870094
:100698000108AF002F08BB003B08413A031D562B49
:1006A800E601582BE601E60AE608031D0800C20128
:1006B800C3014308803AAF0080302F02031D662B28
:1006C800033042020318902B200042083C3E86006B
:1006D80087010108AF004208633E860087012F08A2
:1006E800810042083F3E860087010108AF004208AA
:1006F800EC3E860087012F0881000130C2070030D8
:10070800C33D4308803AAF0080302F02031D8E2B73
:1007180003304202031C682B20003908AF002F0861
:10072800E8003A08AF002F08E700EA01EA0A0800E3
:1007380020000C160030C6000030C500BB30C400D5
:100748007330C3007330C1000030C2008C3178248C
:1007580083318C3146248331003A0319C82B220097
:100768000E15FB01FC01F901FA0124009512220083
:100778000E08FF39D7392000BC000E083C060039A6
:100788003C068E000C120800FB01FC01F901FA017D
:1007980007302000BE001730BD006F30BC00BC0B16
:1007A800D32BBD0BD32BBE0BD32B00002000460848
:1007B800AA004508A9004408A8004308A7008E31EC
:1007C800B4268331200011102100111420001814C0
:1007D80022000D08FF3920382000BC000D083C0617
:1007E80000393C068D0022000D08FF39EF39200042
:1007F800BC000D083C0600393C068D0020006C0842
:100808000319892C4608803ABC000030803A3C0223
:10081800031D182C02304502031D182C0030440219
:10082800031D182C003043020318892C4208803A13
:10083800BC0081303C02031D232C00304102031C04
:10084800352C22000E152000C101C2014608AA005D
:100858004508A9004408A8004308A7008E31B4261B
:1008680083317A087C06031D3B2C79087B06031923
:10087800022C8C31DC2483318C319C24833101306F
:100888002000C3070030C43D0030C53D0030C63DE0
:100898000130C1070030C23D022C4208803ABC003A
:1008A80081303C02031D5A2C00304102031C6C2C81
:1008B80022000E152000C101C2014608AA00450801
:1008C800A9004408A8004308A7008E31B426833144
:1008D8007A087C06031D722C79087B06031D762C8A
:1008E8002000892C8C31DC2483318C319C24833189
:1008F80001302000C3070030C43D0030C53D003042
:10090800C63D0130C1070030C23D7A087C06031D90
:100918008F2C79087B060319A62C20004608803AFC
:10092800BC000030803A3C02031DA42C0230450272
:10093800031DA42C00304402031DA42C00304302E4
:10094800031C512C22000E15210011102000181034
:100958001A30BD00F830BC00BC0BB02CBD0BB02C5D
:10096800000000302000AA000030A900BB30A80019
:100978006830A7008E31B426833120004608803ABB
:10098800BC000030803A3C02031DD42C02304502E2
:10099800031DD42C00304402031DD42C0030430224
:1009A800031CE02C01308C319C248331FF308C31C6
:1009B8009C248331FF300C2D20004308BC004408E0
:1009C800BD004508BE004608BF001030C000BF3754
:1009D800BE0CBD0CBC0CC00BEB2C3C088C319C2411
:1009E800833120004308BC004408BD004508BE0010
:1009F8004608BF000830C000BF37BE0CBD0CBC0C99
:100A0800C00B002D3C088C319C2483312000430806
:100A18008C319C24833122000E1520006A080319AA
:100A2800192D8F3114272000EA0122000D08FF3903
:100A3800DF392000BC000D083C0600393C068D005B
:100A4800FB01FC01F901FA012400951222000E08AD
:100A5800FF39D7392000BC000E083C0600393C0697
:100A68008E000C1208002000BB003030B40034089F
:100A7800BA002F08B5002E08B400AE0A0319AF0A51
:100A880034088400350885000008B6003608C00020
:100A9800C0080319382E4008253A03195F2D40086D
:100AA800B4003B0886008701340881000130B40097
:100AB8003408BB073D2DB801902D3A088600870100
:100AC8000108BC000030BD000130B4003408BA078A
:100AD8003D083C04031D742D1D30BC008830BD004A
:100AE8003C0884003D0885000008003803193D2DA6
:100AF8003C0884003D0885000008B4003B088600D7
:100B08008701340881000130BC070030BD3D013049
:100B1800B4003408BB07742D2F08B5002E08B400A4
:100B2800AE0A0319AF0A34088400350885000008A6
:100B3800C000003A0319382E643A0319AA2D0D3A59
:100B48000319AA2D1A3A0319612D3D2D3A0886007A
:100B58008701403FBC00413FBD000230B40034086B
:100B6800BA07BD1FC02D0330B4003408B804BC094F
:100B7800BD09BC0A0319BD0AC001C00A4008053AEC
:100B88000319E52D4008B400B501B435B50D0030A2
:100B9800340784008830353D8500003FB600013FAA
:100BA800B70037083D02031DDB2D36083C02031C45
:100BB800E52D0130B4003408C0074008053A031D8C
:100BC800C62D380803390319F42D2D30B4003B081D
:100BD80086008701340881000130B4003408BB075F
:100BE8004008B4003408B900FF30B4003408B9072D
:100BF8003908FF3A03193D2D0A30A8000030A90032
:100C08003908B400B501B435B50D00303407840097
:100C18008830353D8500003FA000013FA1003D0818
:100C2800A301A3073C08A201A2078D31E72585315E
:100C380020002108AB01AB072008AA01AA078D31C3
:100C4800B825853120002808303EB6003608C00097
:100C58004008B4003B088600870134088100013051
:100C6800B4003408BB07F82D3B08860087018101D2
:100C780008008C31162486318D315E2586318D3100
:100C88000D2586318C31282486318C310824863113
:100C98008C31372486310A302000DF005F08E200FB
:100CA800FD018B178D318B258631873134278631AD
:100CB80022000D08FF39DF392000DF000D085F062C
:100CC80000395F068D0022000D08FF39103820001A
:100CD800DF000D085F0600395F068D000330E10074
:100CE8000830E0007830DF00DF0B782EE00B782E3C
:100CF800E10B782E22000D08FF39EF392000DF00C4
:100D08000D085F0600395F068D0022000E152200CF
:100D18000E1520008C1C9F2E0D140330E1000830A6
:100D2800E0007830DF00DF0B972EE00B972EE10B09
:100D3800972E20000D106C080319A72E83319C23D1
:100D480086312000EC018731AE2786312000660805
:100D58000319E52E22000D08FF3920382000DF0096
:100D68000D085F0600395F068D0022000D08FF3967
:100D7800EF392000DF000D085F0600395F068D009F
:100D88000630E1001330E000B130DF00DF0BCA2E7F
:100D9800E00BCA2EE10BCA2E003222000D08FF39E3
:100DA800DF392000DF000D085F0600395F068D007F
:100DB8000E3062020318172F0130DF005F08E207C8
:100DC800172F22000D08FF3910382000DF000D080A
:100DD8005F0600395F068D0022000D08FF39DF39F4
:100DE8002000DF000D085F0600395F068D00063021
:100DF800E1001330E000B130DF00DF0B012FE00B22
:100E0800012FE10B012F003222000D08FF39EF39C5
:100E18002000DF000D085F0600395F068D000A30EC
:100E2800DF005F08E200EC08031D8B2E8C1C212FCD
:100E38000A308C31662486318B2E2000660803190F
:100E48002A2F62088C31662486318B2E8D318B25B2
:100E580086318C31F42486318D318B2586318B2E69
:100E68006630860001308700D2308400003085006B
:100E780006302000C10016001A00C10B3F2F2100C8
:100E88006B08DB006A08DA006908D9006808D8002E
:100E9800DC01DD015D08803A2000C100803041029C
:100EA800031D592F063021005C0203189F2F1530AF
:100EB8002000C3004B30C200D130C100C10B622FEB
:100EC800C20B622FC30B622F00000A302000AE0055
:100ED8008830AF00D230C1004108B000D830C2001D
:100EE8004208B10021005D082000B301B3072100CA
:100EF8005C082000B201B207A03085313725873160
:100F080016302000A8000030A900A0308F318A27B1
:100F1800873101302100DC070030DD3D5D08803A73
:100F28002000C10080304102031D9D2F06302100A2
:100F38005C02031C5B2F15302000C3004B30C2003D
:100F4800D130C100C10BA62FC20BA62FC30BA62FF1
:100F580000000800D3308600013087004530840047
:100F68000030850016302000C40016001A00C40B9B
:100F7800B92F210091160B178B17FD011630200091
:100F8800A8000030A90045308F318A278731220018
:100F98000D08FF3920382000C4000D084406003928
:100FA80044068D0022000D08FF39EF392000C400E7
:100FB8000D084406003944068D006B080319E12F1B
:100FC80022000D08FF39DF392000C4000D0844064F
:100FD800003944068D00EB0181313E2108002400D0
:100FE8009101141CF52F11082000A0002008A10071
:060FF80091112108080020
:10100000013400340A34003464340034E8340334E6
:101010001034273425347334253473342C3430346D
:10102000253464342C34303430342C34303430347F
:101030002C34303430342A34003428346E3475344F
:081040006C346C3429340034D7
:1017EC00FE0012001E00FE0BF72B0034640080017B
:1017FC000131890BFD2B0034283419341434013495
:10180C0045344E3421001708C1391438970017108D
:10181C000800313430343334003456344434143406
:10182C007830210099041908FC3902389900080015
:10183C002000A00023009E1C202C20002008230048
:10184C009A0008003F30200098051808CF3920383E
:10185C00980018159913FF309700713096001814E2
:10186C00080021000E138E1723001E119C0133302B
:10187C009B001E131E129E169D171D131D1608008D
:10188C008C3155248C312000A7002708A80028088B
:10189C00FF3A031D532C01300800003008002200D1
:1018AC000E1105308C319C248C318731F3272000AC
:1018BC00A5002508A60022000E1520002608080009
:1018CC002000A1002108A000A00D21001708200075
:1018DC002006C1392006210097001714630021004F
:1018EC001710080021000E118E110E168E122200F8
:1018FC000E15240095121508F039013895001512B3
:10190C0014179413951608002000A300A201231CA1
:10191C00932C2008A1002108A2070310A00D03108E
:10192C00A30CA308031D8D2C220808002000A40082
:10193C00240011082000A000A1012008A200210809
:10194C00A300911124082400910020009119080093
:10195C00AB2C243450345334523446343134303478
:10196C0033342C34303431342C34303431342C3452
:10197C00303431342C34303430342A340034F100E7
:10198C007108F0007908A03E8600013087007008CD
:10199C008100333079067A04031DD72CF901FA0142
:1019AC0008000130F9070030FA3D08007B08A03E22
:1019BC0086000130870001082000A0002008A1004B
:1019CC0033307B067C04031DEE2CFB01FC01F22C56
:1019DC000130FB070030FC3D210808002000A1016C
:1019EC0021001708C1391C3897001714062D013037
:1019FC00A0002008A1070430210203180A2D63005F
:101A0C002000EC080319FD2C210017100800210000
:101A1C000C1423000C1421001E088F3950389E0022
:101A2C00FC309E051E1183309D050F309F049E13C4
:101A3C009D171D1420001113210011170B170800FE
:101A4C0024345034533452344634313431343734F2
:101A5C002C34313436342A34003424344734503462
:101A6C0047344C344C3400342434503453345234D2
:101A7C00463400342000A401A501201C492D220865
:101A8C00A4072308A53D0130A235A30D890B4A2DCF
:101A9C000130A136A00C890B4F2D21082004031D09
:101AAC00432D2508A101A1072408A001A0070800C7
:101ABC0021008C1423008C10270091149214930194
:101ACC008B1521008D1523008D112700951594156C
:101ADC0096018B1521000C140C158C150C128C1204
:101AEC000C138C130D108D140D110D128D12200072
:101AFC000D100D128D1223000D108D100D110D12E5
:101B0C008D1221000E108E10080020000C131530C1
:101B1C00A2004B30A100D130A000A00B932DA10B43
:101B2C00932DA20B932D000020000C170330A20064
:101B3C000830A1007830A000A00BA22DA10BA22D83
:101B4C00A20BA22D20000C131530A2004B30A100CB
:101B5C00D130A000A00BB02DA10BB02DA20BB02D3D
:101B6C00000008002000290828040319E02DAD010D
:101B7C00AD0AA91BCB2D0130A835A90D890BC22D9F
:101B8C000130AC002C08AD07BF2D29082B02031D1A
:101B9C00D12D28082A02031CD72D2808AA022908AF
:101BAC00AB3B0130A936A80C890BD82D0130AD0206
:101BBC00031DCB2D2B08A901A9072A08A801A807EA
:101BCC0008002000A501A601210820040319172EE6
:101BDC00A701A70AA11BFC2D0130A035A10D890B73
:101BEC00F32D0130A4002408A707F02D0130A535F2
:101BFC00A60D890BFD2D21082302031D072E20089D
:101C0C002202031C0E2E2008A2022108A33B25143D
:101C1C000130A136A00C890B0F2E0130A702031D39
:101C2C00FC2D2608A101A1072508A001A00708008A
:101C3C002000A500A401A601A7012708803AA20054
:101C4C002108803A2202031D2D2E2008260203189B
:101C5C005D2E200026082507A20022088600870199
:101C6C000108243A0319582E26082507A200220839
:101C7C008600870101082A3A0319582E26082507E1
:101C8C00A2002208860087010108213A0319582E68
:101C9C0026082507A2002208860087010108A30058
:101CAC002308A4060130A6070030A73D232E2000F0
:101CBC00240808002000AC01A71F6B2EA609A70959
:101CCC00A60A0319A70AAC01AC0AA91F762EA8090B
:101CDC00A909A80A0319A90A0130AA002A08AC0606
:101CEC00AD01AE01270826040319A52EAB01AB0AE2
:101CFC00A71B8A2E0130A635A70D890B812E01302A
:101D0C00AA002A08AB077E2E0130AD35AE0D890B2B
:101D1C008B2E27082902031D952E26082802031C4A
:101D2C009C2E2608A8022708A93B2D140130A736A3
:101D3C00A60C890B9D2E0130AB02031D8A2E2C089C
:101D4C000319AD2EAD09AE09AD0A0319AE0A2E0862
:101D5C00A701A7072D08A601A60708002000270841
:101D6C00AB002808AC002908AD002A08AE001030E2
:101D7C00AF00AE37AD0CAC0CAB0CAF0BBF2E2B08C1
:101D8C00B0003008B1002708AB002808AC002908C7
:101D9C00AD002A08AE000830AF00AE37AD0CAC0C6D
:101DAC00AB0CAF0BD32E2B08B0003008B2002708B9
:101DBC00AB002B08B3008C3155248E310139200037
:101DCC00AB002B08B400B408031DE12E22000E1149
:101DDC0006308C319C248E3122000E158C3155240A
:101DEC008E3102392000AB002B08B40034080319E3
:101DFC00F42E22000E1102308C319C248E312000E6
:101E0C0031088C319C248E31200032088C319C247A
:101E1C008E31200033088C319C24080000302000C7
:101E2C00B9000030B800BB30B7006B30B6000C16F0
:101E3C002400951A242F8C3178248F3120003908F6
:101E4C00AA003808A9003708A8003608A7008E3168
:101E5C00B4268F312000BA01BB013B08803AB50093
:101E6C0080303502031D3C2F03303A020318572FE4
:101E7C0020003A08633E8600870101088C319C24BF
:101E8C008F3101302000BA070030BB3D3B08803A4F
:101E9C00B50080303502031D552F03303A02031C68
:101EAC003E2F200068088C319C248F312000BA0111
:101EBC00BB013B08803AB50080303502031D682F0A
:101ECC0003303A020318832F20003A08EC3E8600B8
:101EDC00870101088C319C248F3101302000BA0716
:101EEC000030BB3D3B08803AB50080303502031D05
:101EFC00812F03303A02031C6A2F200067088C31B3
:101F0C009C2422000E1508002000B4002908A10111
:101F1C00A1072808A001A00734088E311E268F3196
:101F2C002000AA002A08B3003308AA000430AA36FD
:101F3C00890B9D2F2A08AB002B08B50033080F39ED
:101F4C00AA002A08B6000A303502031CAF2F37301E
:101F5C00B02F3030AD000030AE002D08AA002A089A
:101F6C00B5070A303602031CBD2F3730BE2F303078
:101F7C00AF000030B0002F08AA002A08B607B10144
:101F8C00B2012808FF3EAA00FF30293DAB00320801
:101F9C00803AAC002B08803A2C02031DD72F2A085C
:101FAC0031020318EA2F200031083407AA002A084E
:101FBC008600870101088C311E248F3101302000EE
:101FCC00B1070030B23DC72F200035088C311E24DC
:101FDC008F31200036088C311E248F310D308C311E
:101FEC001E248F310A308C311E248F3123009E1811
:041FFC000800FC2FAE
:020000040001F9
:04000E00ECF9FFFE0C
:00000001FF
