:040000008031D8284B
:100008007E14803120007F08F600911E37282300D7
:100018009D1C10281D121D161908F2007D08243E8B
:10002800860001308700720881000130F2007208F2
:10003800FD0732307D02031C26282000E801E80A6B
:10004800FD0136287D08FF3E243E860001308700EA
:1000580001080A3A031D34282000E801E80A362876
:100068002000E8019112111C48282100111C482881
:10007800FF302000970071309600111069080319AD
:10008800482821009D1420002100110E890C890C9C
:100098000139F2002000110E890C890C0139720512
:1000A80003198A28333079067A04031970287908E5
:1000B800013EF20000307A3DF3007C087306031D10
:1000C80067287B087206003003190130F400F50137
:1000D8007408F70075087A287C087B040030031937
:1000E8000130F200F3017208F7007308F80078088D
:1000F8007704031D882869080319882821001C082B
:100108008C31992480312000200011138B1DB328D5
:100118002700961DB328961120000D0CF200F20C52
:10012800720C0139F3002700140CF400F40C740C61
:10013800013973050319A3282000E901E90A2700FA
:10014800150CF200F20C720C0139F30003102000B8
:100158008D1D03140030093D7305031DE9018B1D36
:10016800D3282700931CD328931020000C0C0139A6
:10017800F2002700110C013972050319C628200066
:10018800EA01EA0A2700120C0139F20003102000E4
:100198008C1C03140030093D7205031DEA01760822
:1001A8002000FF007E1009008031DA28F901FA01E9
:1001B800FB01FC01FD01E501E601E701E801E901B8
:1001C800EA012100E801E901EA01EB01EC01ED0196
:1001D800203084000130850036308B31BB238031DC
:1001E800A03084000130850033308B31BB2380314F
:1001F800203084000230850048308B31BB238031A9
:10020800B23084008B3085006B3086000030870068
:1002180003308B31B5238031DA3084008B30850090
:10022800DE308600003087000A308B31B5238031FC
:10023800C83084008C308500563086000130870035
:100248001A308B31B5238031833084008C3085009F
:10025800D33086000130870016308B31B5237E10ED
:1002680020008531302D6330860001308700323020
:1002780084000030850007302000AF0016001A0007
:10028800AF0B4229210068082000BC002100690842
:100298002000BD0021006A082000BE0021006B0874
:1002A8002000BF0021006C082000C00021006D085C
:1002B8002000C100C201C3014308803AAF0080306A
:1002C8002F02031D69290630420203188B292000DA
:1002D8004208323E860087014208243E84000130ED
:1002E80085000008010603197C29EB01EB0A0800C8
:1002F8000130C2070030C33D4308803AAF00803068
:100308002F02031D892906304202031C6B29200095
:100318004208013EC2000030433DC3004208243E6B
:1003280086000130870001082C3A0319342A0A3064
:10033800AF002F08A0004208243E86000130870045
:100348000108D03E8C315E2481312000B000300895
:10035800BC000130C2070030C33D4208243E86007D
:10036800013087000108D03EAF002F08BC070130DC
:10037800C2070030C33D0A30AF002F08A000420872
:10038800243E8600013087000108D03E8C315E246F
:1003980081312000B0003008BD000130C2070030B4
:1003A800C33D4208243E8600013087000108D03E44
:1003B800AF002F08BD070130C2070030C33D420817
:1003C800013EC2000030433DC3000A30AF002F0891
:1003D800A0004208243E8600013087000108D03E74
:1003E8008C315E2481312000B0003008BE0001301D
:1003F800C2070030C33D4208243E86000130870012
:100408000108D03EAF002F08BE070130C2070030F8
:10041800C33D6430A6000030A7003E08AF00B0011D
:100428002F08A0003008A1003C30A2000030A30033
:100438008C31FE24813120002108A901A907200858
:10044800A801A8078E316026813120002608B10056
:100458003108BE004208023EC2000030433DC300DE
:100468004208013EC2000030433DC3004208243E1A
:1004780086000130870001082C3A0319502A4208E7
:10048800243E8600013087000108AF002F08B9001C
:100498000130C2070030C33D4208013EC2000030AF
:1004A800433DC3004208243E86000130870001080E
:1004B8002C3A03190E2B6430AF002F08A000420815
:1004C800243E8600013087000108D03E8C315E242E
:1004D80081312000B0003008BF000130C207003071
:1004E800C33D0A30AF002F08A0004208243E860012
:1004F800013087000108D03E8C315E248131200014
:10050800B0003008BF070130C2070030C33D4208C1
:10051800243E8600013087000108D03EAF002F0836
:10052800BF070130C2070030C33D0A30AF002F08B3
:10053800A0004208243E8600013087000108D03E12
:100548008C315E2481312000B0003008C0000130B9
:10055800C2070030C33D4208243E860001308700B0
:100568000108D03EAF002F08C0070130C207003095
:10057800C33D4208013EC2000030433DC3000A307B
:10058800AF002F08A0004208243E860001308700F3
:100598000108D03E8C315E2481312000B000300843
:1005A800C1000130C2070030C33D4208243E860026
:1005B800013087000108D03EAF002F08C107013085
:1005C800C2070030C33D6430A6000030A7004108D0
:1005D800AF00B0012F08A0003008A1003C30A200F5
:1005E8000030A3008C31FE24813120002108A901AC
:1005F800A9072008A801A8078E31602681312000AC
:100608002608B1003108C1004208023EC20000308D
:10061800433DC3004208013EC2000030433DC300D1
:100628004208243E86000130870001082C3A03194D
:100638002A2B4208243E8600013087000108AF00BB
:100648002F08BA000130C2070030C33D4208013EFE
:10065800C2000030433DC3004308B0004208AF0069
:10066800C20A0319C30A2F08243E860001308700F6
:1006780001082C3A031D302B4208243E8600013025
:1006880087000108AF002F08BB003B08413A031D53
:100698004F2BEB01512BEB01EB0AEB08031D080074
:1006A800C201C3014308803AAF0080302F02031D06
:1006B8005F2B033042020318892B200042083C3E7E
:1006C800860087010108AF004208E23E86008701E4
:1006D8002F08810042083F3E860087010108AF00CD
:1006E8004208E53E860087012F0881000130C207D5
:1006F8000030C33D4308803AAF0080302F02031D0D
:10070800872B03304202031C612B20003908AF00FD
:100718002F08ED003A08AF002F08EC00E701E70AC0
:10072800080020000C160030C6000030C500BB30A1
:10073800C4007330C3007330C1000030C2008C3174
:100748004C2483318C311A248331003A0319C12B8C
:1007580022000E15FB01FC01F901FA012400951293
:1007680022000E08FF39D7392000BC000E083C06CD
:1007780000393C068E000C120800FB01FC01F9014F
:10078800FA0107302000BE001730BD006F30BC00F2
:10079800BC0BCC2BBD0BCC2BBE0BCC2B00002000F4
:1007A8004608AA004508A9004408A8004308A7006D
:1007B8008E31B4268331200011102100111420003D
:1007C800181422000D08FF3920382000BC000D083D
:1007D8003C0600393C068D0022000D08FF39EF3930
:1007E8002000BC000D083C0600393C068D002000A6
:1007F80069080319822C4608803ABC000030803A08
:100808003C02031D112C02304502031D112C00303F
:100818004402031D112C003043020318822C4208A5
:10082800803ABC0081303C02031D1C2C0030410280
:10083800031C2E2C22000E152000C101C2014608FF
:10084800AA004508A9004408A8004308A7008E315B
:10085800B42683317A087C06031D342C79087B067C
:100868000319FB2B8C31B02483318C3170248331F4
:1008780001302000C3070030C43D0030C53D0030C2
:10088800C63D0130C1070030C23DFB2B4208803A0B
:10089800BC0081303C02031D532C00304102031C74
:1008A800652C22000E152000C101C2014608AA00CD
:1008B8004508A9004408A8004308A7008E31B426BB
:1008C80083317A087C06031D6B2C79087B06031D8F
:1008D8006F2C2000822C8C31B02483318C31702411
:1008E800833101302000C3070030C43D0030C53DCE
:1008F8000030C63D0130C1070030C23D7A087C0691
:10090800031D882C79087B0603199F2C20004608B4
:10091800803ABC000030803A3C02031D9D2C023016
:100928004502031D9D2C00304402031D9D2C003000
:100938004302031C4A2C22000E152100111020002E
:1009480018101A30BD00F830BC00BC0BA92CBD0B28
:10095800A92C000000302000AA000030A900BB30FC
:10096800A8006830A7008E31B426833120004608DD
:10097800803ABC000030803A3C02031DCD2C023086
:100988004502031DCD2C00304402031DCD2C003040
:100998004302031CD92C01308C3170248331FF3081
:1009A8008C3170248331FF30052D20004308BC00B2
:1009B8004408BD004508BE004608BF001030C0000E
:1009C800BF37BE0CBD0CBC0CC00BE42C3C088C31F2
:1009D8007024833120004308BC004408BD0045084A
:1009E800BE004608BF000830C000BF37BE0CBD0CB3
:1009F800BC0CC00BF92C3C088C31702483312000CE
:100A080043088C317024833122000E1520006708BA
:100A18000319122D8F3114272000E70122000D0839
:100A2800FF39DF392000BC000D083C0600393C06C0
:100A38008D00FB01FC01F901FA0124009512220046
:100A48000E08FF39D7392000BC000E083C060039D3
:100A58003C068E000C1208008B31C82385318D317D
:100A68001C2585318731E72785318B31E423853192
:100A78008B31FC2385318B31C12385318C310B249B
:100A880085310A302000E1006108E400FD018B1780
:100A98008D314925853187316D27853122000D0833
:100AA800FF39DF392000E1000D08610600396106D1
:100AB8008D0022000D08FF3910382000E1000D08D4
:100AC8006106003961068D000330E3000830E2005A
:100AD8007830E100E10B6E2DE20B6E2DE30B6E2DED
:100AE80022000D08FF39EF392000E1000D086106EA
:100AF800003961068D0022000E1522000E15200017
:100B08008C1C952D0D140330E3000830E20078307A
:100B1800E100E10B8D2DE20B8D2DE30B8D2D2000D7
:100B28000D1069080319AB2D8331952385312000F9
:100B3800E9010B30E3002630E2006630E100E10B0A
:100B4800A32DE20BA32DE30BA32D003220002000E0
:100B5800E608031DB32D8E311E268531DD2D2000BC
:100B68006608013A031DBD2D8D31492585310230B6
:100B7800C52D6608023A031DCA2D8D3149258531D8
:100B880003302000E1006108E600DD2D6608033A25
:100B9800031DDC2D1530E3004B30E200D130E100BD
:100BA800E10BD42DE20BD42DE30BD42D0000200053
:100BB800E60120006B080319182E22000D08FF39E2
:100BC80020382000E1000D086106003961068D001B
:100BD80022000D08FF39EF392000E1000D086106F9
:100BE800003961068D000630E3001330E200B130B1
:100BF800E100E10BFD2DE20BFD2DE30BFD2D003295
:100C080022000D08FF39DF392000E1000D086106D8
:100C1800003961068D000E30640203184A2E013037
:100C2800E1006108E4074A2E22000D08FF39103858
:100C38002000E1000D086106003961068D002200E0
:100C48000D08FF39DF392000E1000D086106003981
:100C580061068D000630E3001330E200B130E10098
:100C6800E10B342EE20B342EE30B342E003222003B
:100C78000D08FF39EF392000E1000D086106003941
:100C880061068D000A30E1006108E400E908031DEF
:100C9800812D8C1C542E0A308C313A248531812DBB
:100CA80020006B0803195D2E64088C313A248531C5
:100CB800812D8D31492585318C31E22485318D3165
:100CC80049258531812D2000BB003030B40034081F
:100CD800BA002F08B5002E08B400AE0A0319AF0AEF
:100CE80034088400350885000008B6003608C000BE
:100CF800C0080319682F4008253A03198F2E4008A9
:100D0800B4003B0886008701340881000130B40034
:100D18003408BB076D2EB801C02E3A08860087013B
:100D28000108BC000030BD000130B4003408BA0727
:100D38003D083C04031DA42E1D30BC008830BD00B6
:100D48003C0884003D0885000008003803196D2E12
:100D58003C0884003D0885000008B4003B08860074
:100D68008701340881000130BC070030BD3D0130E7
:100D7800B4003408BB07A42E2F08B5002E08B40011
:100D8800AE0A0319AF0A3408840035088500000844
:100D9800C000003A0319682F643A0319DA2E0D3A95
:100DA8000319DA2E1A3A0319912E6D2E3A08860085
:100DB8008701403FBC00413FBD000230B400340809
:100DC800BA07BD1FF02E0330B4003408B804BC09BC
:100DD800BD09BC0A0319BD0AC001C00A4008053A8A
:100DE8000319152F4008B400B501B435B50D00300E
:100DF800340784008830353D8500003FB600013F48
:100E0800B70037083D02031D0B2F36083C02031CB0
:100E1800152F0130B4003408C0074008053A031DF7
:100E2800F62E380803390319242F2D30B4003B0857
:100E380086008701340881000130B4003408BB07FC
:100E48004008B4003408B900FF30B4003408B907CA
:100E58003908FF3A03196D2E0A30A8000030A9009E
:100E68003908B400B501B435B50D00303407840035
:100E78008830353D8500003FA000013FA1003D08B6
:100E8800A301A3073C08A201A2078D31A52586313D
:100E980020002108AB01AB072008AA01AA078D3161
:100EA8007625863120002808303EB6003608C00076
:100EB8004008B4003B0886008701340881000130EF
:100EC800B4003408BB07282F3B088600870181013E
:100ED80008006A30860001308700D2308400003074
:100EE800850006302000C10016001A00C10B782FBB
:100EF80021006108DB006008DA005F08D9005E089D
:100F0800D800DC01DD015D08803A2000C100803096
:100F18004102031D922F063021005C020318D82FCE
:100F280015302000C3004B30C200D130C100C10BC6
:100F38009B2FC20B9B2FC30B9B2F00000A30200056
:100F4800AE008830AF00D230C1004108B000D830C0
:100F5800C2004208B10021005D082000B301B307B8
:100F680021005C082000B201B207A0308631672654
:100F7800873116302000A8000030A900A0308F313A
:100F88008A27873101302100DC070030DD3D5D080C
:100F9800803A2000C10080304102031DD62F063060
:100FA80021005C02031C942F15302000C3004B3035
:100FB800C200D130C100C10BDF2FC20BDF2FC30B22
:100FC800DF2F0000080021000C1423000C1421005E
:100FD8001E088F3950389E00FC309E051E11833044
:100FE8009D050F309F049E139D171D14200011139B
:100FF800210011170B170800013400340A3400349B
:1010080064340034E834033410342734253473341A
:10101800253473342C343034253464342C3430344F
:1010280030342C34303430342C34303430342A34A6
:10103800003428346E3475346C346C3429340034FC
:10176400013445344E34FE0012001E00FE0BB62B2D
:101774000034640080010131890BBC2B003421004A
:101784001708C13914389700171008007830210061
:1017940099041908FC390238990008002000A000B7
:1017A40023009E1CD22B2000200823009A0008004E
:1017B4003134303433340034283419341434563446
:1017C400443414348B120B11210095129511151405
:1017D400951415153D302000950008002400910152
:1017E400141CF22B11082000A0002008A100911164
:1017F400210808003F30200098051808CF39203808
:10180400980018159913FF3097007130960018143A
:10181400080021000E138E1723001E119C01333083
:101824009B001E131E129E169D171D131D160800E5
:101834008C3129248C312000A7002708A80028080F
:10184400FF3A031D272C0130080000300800220055
:101854000E1105308C3170248C318B31F023200033
:10186400A5002508A60022000E1520002608080061
:101874002000A1002108A000A00D210017082000CD
:101884002006C139200621009700171463002100A7
:101894001710080021000E118E110E168E12220050
:1018A4000E15240095121508F0390138950015120B
:1018B40014179413951608002000A300A201231CFA
:1018C400672C2008A1002108A2070310A00D031013
:1018D400A30CA308031D612C220808002000A40007
:1018E400240011082000A000A1012008A200210862
:1018F400A3009111240824009100200091190800EC
:101904007F2C2434503453345234463431343034FC
:1019140033342C34303431342C34303430342C34AB
:10192400303431342C34303430342A340034F1003F
:101934007108F0007908A03E860001308700700825
:101944008100333079067A04031DAB2CF901FA01C6
:1019540008000130F9070030FA3D08007B08A03E7A
:1019640086000130870001082000A0002008A100A3
:1019740033307B067C04031DC22CFB01FC01C62C06
:101984000130FB070030FC3D2108080024345034AA
:101994005334523446343134313437342C343134C2
:1019A40036342A34003424344734503447344C34E5
:1019B4004C340034243450345334523446340034D8
:1019C4002000A10121001708C1391C389700171401
:1019D400EC2C63002000E908031DFB2C0130A0005F
:1019E4002008A107043021020318FB2C6A080319FC
:1019F400EB2C2100171008002000A401A501201CD5
:101A0400072D2208A4072308A53D0130A235A30D04
:101A1400890B082D0130A136A00C890B0D2D21084E
:101A24002004031D012D2508A101A1072408A001FC
:101A3400A007080021008C1423008C1027009114A7
:101A4400921493018B1521008D1523008D1127000D
:101A54009515941596018B1521000C140C158C15F5
:101A64000C128C120C138C130D108D140D110D12FD
:101A74008D1220000D100D128D1223000D108D10EB
:101A84000D110D128D1221000E108E100800200071
:101A94000C131530A2004B30A100D130A000A00BD4
:101AA400512DA10B512DA20B512D000020000C171C
:101AB4000330A2000830A1007830A000A00B602DF4
:101AC400A10B602DA20B602D20000C131530A20079
:101AD4004B30A100D130A000A00B6E2DA10B6E2DB8
:101AE400A20B6E2D00000800200029082804031909
:101AF4009E2DAD01AD0AA91B892D0130A835A90D74
:101B0400890B802D0130AC002C08AD077D2D2908F0
:101B14002B02031D8F2D28082A02031C952D28084B
:101B2400AA022908AB3B0130A936A80C890B962DD3
:101B34000130AD02031D892D2B08A901A9072A082C
:101B4400A801A80708002000A501A6012108200477
:101B54000319D52DA701A70AA11BBA2D0130A03561
:101B6400A10D890BB12D0130A4002408A707AE2DC7
:101B74000130A535A60D890BBB2D21082302031DB9
:101B8400C52D20082202031CCC2D2008A202210806
:101B9400A33B25140130A136A00C890BCD2D0130B7
:101BA400A702031DBA2D2608A101A1072508A0013B
:101BB400A00708002000A500A401A601A70127088A
:101BC400803AA2002108803A2202031DEB2D20084E
:101BD400260203181B2E200026082507A20022082F
:101BE400860087010108243A0319162E26082507C2
:101BF400A20022088600870101082A3A0319162E3A
:101C040026082507A2002208860087010108213A38
:101C14000319162E26082507A2002208860087012C
:101C24000108A3002308A4060130A6070030A73D3D
:101C3400E12D2000240808002000DB01DC01D33062
:101C4400860001308700453084000030850016305E
:101C5400C40016001A00C40B2B2E210091160B177A
:101C64008B17FD0116302000A8000030A900453074
:101C74008F318A278E310B112000472E0B1D482EE1
:101C84000130DB070030DC3D0B119501E808031D32
:101C9400522E00305C023E3003195B02031C402EBE
:101CA40000305C023E3003195B02031C5C2EE6012B
:101CB400E60A0800E8018131372108002000AC0160
:101CC400A71F6B2EA609A709A60A0319A70AAC0128
:101CD400AC0AA91F762EA809A909A80A0319A90AFA
:101CE4000130AA002A08AC06AD01AE01270826047B
:101CF4000319A52EAB01AB0AA71B8A2E0130A6350A
:101D0400A70D890B812E0130AA002A08AB077E2E6D
:101D14000130AD35AE0D890B8B2E27082902031D2A
:101D2400952E26082802031C9C2E2608A8022708A4
:101D3400A93B2D140130A736A60C890B9D2E01302A
:101D4400AB02031D8A2E2C080319AD2EAD09AE0972
:101D5400AD0A0319AE0A2E08A701A7072D08A6018C
:101D6400A607080020002708AB002808AC002908B3
:101D7400AD002A08AE001030AF00AE37AD0CAC0C8D
:101D8400AB0CAF0BBF2E2B08B0003008B1002708F6
:101D9400AB002808AC002908AD002A08AE000830C2
:101DA400AF00AE37AD0CAC0CAB0CAF0BD32E2B0885
:101DB400B0003008B2002708AB002B08B3008C3108
:101DC40029248E3101392000AB002B08B400B4085B
:101DD400031DE12E22000E1106308C3170248E3149
:101DE40022000E158C3129248E3102392000AB00DB
:101DF4002B08B40034080319F42E22000E1102300B
:101E04008C3170248E31200031088C3170248E3155
:101E1400200032088C3170248E31200033088C313C
:101E24007024080000302000B9000030B800BB3036
:101E3400B7006B30B6000C162400951A242F8C3191
:101E44004C248F3120003908AA003808A90037082B
:101E5400A8003608A7008E31B4268F312000BA01BD
:101E6400BB013B08803AB50080303502031D3C2F8E
:101E740003303A020318572F20003A08E23E860046
:101E8400870101088C3170248F3101302000BA079A
:101E94000030BB3D3B08803AB50080303502031D5D
:101EA400552F03303A02031C3E2F20006D088C315D
:101EB40070248F312000BA01BB013B08803AB50081
:101EC40080303502031D682F03303A020318832F34
:101ED40020003A08E53E8600870101088C31702411
:101EE4008F3101302000BA070030BB3D3B08803AF7
:101EF400B50080303502031D812F03303A02031CE4
:101F04006A2F20006C088C31702422000E15080002
:101F14002000B4002908A101A1072808A001A007F6
:101F240034088D31DC258F312000AA002A08B30043
:101F34003308AA000430AA36890B9D2F2A08AB0067
:101F44002B08B50033080F39AA002A08B6000A3056
:101F54003502031CAF2F3730B02F3030AD000030C6
:101F6400AE002D08AA002A08B5070A303602031C61
:101F7400BD2F3730BE2F3030AF000030B0002F08F7
:101F8400AA002A08B607B101B2012808FF3EAA0038
:101F9400FF30293DAB003208803AAC002B08803A70
:101FA4002C02031DD72F2A0831020318EA2F200020
:101FB40031083407AA002A088600870101088B31FA
:101FC400D0238F3101302000B1070030B23DC72F3C
:101FD400200035088B31D0238F31200036088B3117
:101FE400D0238F310D308B31D0238F310A308B3198
:0C1FF400D0238F3123009E180800FC2F22
:020000040001F9
:04000E00ECF9FFFE0C
:00000001FF
