:040000008031D22851
:100008007E14803120007F08F600911E2F282300DF
:100018009D1C10281D121D161908F2007D082A3E85
:10002800860001308700720881000130F2007208F2
:10003800FD077D08FF3E2A3E860001308700010843
:100048000A3A031D2B282100EB01EB0A2D28210079
:10005800EB0120009112111C3E282100111C3E28A2
:10006800FF3020009700CD309600111021006C0859
:10007800031D9D142100110E890C890C0139F20011
:100088002000110E890C890C01397205031980288A
:10009800333079067A04031966287908013EF2009C
:1000A80000307A3DF3007C087306031D5D287B0849
:1000B8007206003003190130F400F5017408F700E6
:1000C800750870287C087B04003003190130F200A1
:1000D800F3017208F7007308F80078087704031D25
:1000E8007E2821006C0803197E281C088D314125C3
:1000F80080312100200011138B1DAB282700961D8D
:10010800AB28961120000D0CF200F20C720C01398C
:10011800F3002700140CF400F40C740C0139730577
:10012800031999282100EC01EC0A2700150CF200AC
:10013800F20C720C0139F300031020008D1D03141A
:100148000030093D73050319AB282100EC018B1D14
:10015800CD282700931CCD28931020000C0C0139C2
:10016800F2002700110C013972050319BE2821007D
:10017800ED01ED0A2700120C0139F20003102000EE
:100188008C1C03140030093D72050319CD28210089
:10019800ED0176082000FF007E1009008031D42888
:1001A800F901FA01FB01FC01FD012100EB01EC0161
:1001B800ED0120308400013085003C308C318B24E7
:1001C8008031203084000230850033308C318B241C
:1001D8008031A03084000230850044308C318B247B
:1001E8008031993084008C308500E2308600003000
:1001F800870009308C3185248031E73084008C30C9
:1002080085005C3086000130870011308C318524F0
:100218008031C13084008D308500A03086000130E7
:10022800870023308C3185247E1020008531C62D2F
:100238005C308600013087003F3084000030850044
:1002480007302000BC0016001A00BC0B272922002A
:1002580024082000C900220025082000CA00220026
:1002680026082000CB00220027082000CC0022000E
:1002780028082000CD00220029082000CE00CF0148
:10028800D0015008803ABC0080303C02031D4E2942
:1002980006304F020318712920004F083F3E8600A0
:1002A80087014F082A3E84000130850000080106B6
:1002B800031961292100E801E80A01302000CF076D
:1002C8000030D03D5008803ABC0080303C02031D0D
:1002D8006F2906304F02031C502920004F08013EA9
:1002E800CF000030503DD0004F082A3E8600013034
:1002F800870001082C3A03191A2A0A30BC003C0866
:10030800A0004F082A3E8600013087000108D03E31
:100318008D311C2581312000BD003D08C900013008
:10032800CF070030D03D4F082A3E860001308700B5
:100338000108D03EBC003C08C9070130CF07003097
:10034800D03D0A30BC003C08A0004F082A3E860079
:10035800013087000108D03E8D311C2581312000F5
:10036800BD003D08CA000130CF070030D03D4F081E
:100378002A3E8600013087000108D03EBC003C08B8
:10038800CA070130CF070030D03D4F08013ECF00EB
:100398000030503DD0000A30BC003C08A0004F0897
:1003A8002A3E8600013087000108D03E8D311C2589
:1003B80081312000BD003D08CB000130CF0700305F
:1003C800D03D4F082A3E8600013087000108D03E04
:1003D800BC003C08CB070130CF070030D03D64306B
:1003E800A6000030A7004B08BC00BD013C08A000D7
:1003F8003D08A1003C30A2000030A3008D31A325A8
:10040800813120002108A901A9072008A801A8070F
:100418008E31E626813120002608BE003E08CB003A
:100428004F08023ECF000030503DD0004F08013E3B
:10043800CF000030503DD0004F082A3E86000130E2
:10044800870001082C3A0319362A4F082A3E8600ED
:10045800013087000108BC003C08C6000130CF0706
:100468000030D03D4F08013ECF000030503DD00055
:100478004F082A3E86000130870001082C3A0319EC
:10048800F42A6430BC003C08A0004F082A3E8600CD
:10049800013087000108D03E8D311C2581312000B4
:1004A800BD003D08CC000130CF070030D03D0A30F8
:1004B800BC003C08A0004F082A3E86000130870097
:1004C8000108D03E8D311C2581312000BD003D083A
:1004D800CC070130CF070030D03D4F082A3E8600B8
:1004E800013087000108D03EBC003C08CC07013031
:1004F800CF070030D03D0A30BC003C08A0004F08B0
:100508002A3E8600013087000108D03E8D311C2527
:1005180081312000BD003D08CD000130CF070030FB
:10052800D03D4F082A3E8600013087000108D03EA2
:10053800BC003C08CD070130CF070030D03D4F0844
:10054800013ECF000030503DD0000A30BC003C08CE
:10055800A0004F082A3E8600013087000108D03EDF
:100568008D311C2581312000BD003D08CE000130B1
:10057800CF070030D03D4F082A3E86000130870063
:100588000108D03EBC003C08CE070130CF07003040
:10059800D03D6430A6000030A7004E08BC00BD0165
:1005A8003C08A0003D08A1003C30A2000030A30098
:1005B8008D31A325813120002108A901A907200830
:1005C800A801A8078E31E626813120002608BE0042
:1005D8003E08CE004F08023ECF000030503DD0000C
:1005E8004F08013ECF000030503DD0004F082A3E52
:1005F80086000130870001082C3A0319102B4F0898
:100608002A3E8600013087000108BC003C08C7006C
:100618000130CF070030D03D4F08013ECF000030F9
:10062800503DD0005008BD004F08BC00CF0A031948
:10063800D00A3C082A3E86000130870001082C3A7F
:10064800031D162B4F082A3E86000130870001083B
:10065800BC003C08C8004808413A031D362B21005D
:10066800E801392B2100E801E80AE808031D080021
:100678002000CF01D0015008803ABC0080303C02F5
:10068800031D482B03304F020318722B20004F081C
:10069800493E860087010108BC004F08E23E8600FB
:1006A80087013C0881004F084C3E860087010108FD
:1006B800BC004F08E53E860087013C0881000130F8
:1006C800CF070030D03D5008803ABC0080303C0253
:1006D800031D702B03304F02031C4A2B20004608D1
:1006E800BC003C082100EA0020004708BC003C0888
:1006F8002100E90087318827080020000C16003007
:10070800BF000130BE003530BD00CB30BC00CB305F
:10071800BA000030BB008D310A258331FB01FC0192
:10072800F901FA0120003F08AA003E08A9003D0887
:10073800A8003C08A7008F313A2783312000111008
:10074800210011142000181421006C0803192F2C03
:1007580020003F08803AB5000030803A3502031D7A
:10076800BF2B02303E02031DBF2B00303D02031D8C
:10077800BF2B00303C0203182E2C3B08803AB500F2
:1007880081303502031DCA2B00303A02031CDC2BD2
:1007980022000E152000BA01BB013F08AA003E083E
:1007A800A9003D08A8003C08A7008F313A278331EB
:1007B8007A087C06031DE22B79087B060319A82B0F
:1007C8008D31582583318D312E258331013020001C
:1007D800BC070030BD3D0030BE3D0030BF3D01309C
:1007E800BA070030BB3DA82B3B08803AB5008130E2
:1007F8003502031D012C00303A02031C132C220081
:100808000E152000BA01BB013F08AA003E08A90046
:100818003D08A8003C08A7008F313A2783317A08A1
:100828007C06031D192C79087B0603192E2C8D31A3
:10083800582583318D312E25833101302000BC07A6
:100848000030BD3D0030BE3D0030BF3D0130BA072D
:100858000030BB3D21007A087C06031D352C790841
:100868007B0603194C2C20003F08803AB500003065
:10087800803A3502031D4A2C02303E02031D4A2CE1
:1008880000303D02031D4A2C00303C02031CF82BAB
:1008980022000E1521001110200018101A30B60081
:1008A800F830B500B50B562CB60B562C00000030AE
:1008B8002000AA000130A9003530A800C030A700E8
:1008C8008F313A27833120003F08803AB500003045
:1008D800803A3502031D7A2C02303E02031D7A2C21
:1008E80000303D02031D7A2C00303C02031C862C8C
:1008F80001308D312E258331FF308D312E25833106
:10090800FF30B22C20003C08B5003D08B6003E0878
:10091800B7003F08B8001030B900B837B70CB60CAC
:10092800B50CB90B912C35088D312E25833120005B
:100938003C08B5003D08B6003E08B7003F08B800BF
:100948000830B900B837B70CB60CB50CB90BA62CE3
:1009580035088D312E25833120003C088D312E2518
:1009680022000E15FB01FC01F901FA012400951281
:1009780020008E120C1208002000BB003030B4009A
:100988003408BA002F08B5002E08B400AE0A0319BF
:10099800AF0A34088400350885000008B600360818
:1009A800C000C0080319C12D4008253A0319E82CD6
:1009B8004008B4003B0886008701340881000130F4
:1009C800B4003408BB07C62CB801192D3A088600B4
:1009D80087010108BC000030BD000130B4003408B4
:1009E800BA073D083C04031DFD2C4430BC00883088
:1009F800BD003C0884003D08850000080038031944
:100A0800C62C3C0884003D0885000008B4003B085B
:100A180086008701340881000130BC070030BD3DE5
:100A28000130B4003408BB07FD2C2F08B5002E0890
:100A3800B400AE0A0319AF0A3408840035088500EB
:100A48000008C000003A0319C12D643A0319332D78
:100A58000D3A0319332D1A3A0319EA2CC62C3A0811
:100A680086008701403FBC00413FBD000230B40012
:100A78003408BA07BD1F492D0330B4003408B80440
:100A8800BC09BD09BC0A0319BD0AC001C00A400857
:100A9800053A03196E2D4008B400B501B435B50DFB
:100AA8000030340784008830353D8500003FB600AB
:100AB800013FB70037083D02031D642D36083C028C
:100AC800031C6E2D0130B4003408C0074008053AF5
:100AD800031D4F2D3808033903197D2D2D30B4001F
:100AE8003B0886008701340881000130B4003408CF
:100AF800BB074008B4003408B900FF30B40034081C
:100B0800B9073908FF3A0319C62C0A30A800003083
:100B1800A9003908B400B501B435B50D0030340763
:100B280084008830353D8500003FA000013FA100CA
:100B38003D08A301A3073C08A201A2078E316D2638
:100B4800843120002108AB01AB072008AA01AA07BD
:100B58008E313E26843120002808303EB600360803
:100B6800C0004008B4003B088600870134088100B3
:100B78000130B4003408BB07812D3B08860087018B
:100B8800810108008C31912485318D31E42585312E
:100B98008D31702585318D310A2585318C31B82408
:100BA80085318731F92785318C31C72485310A3061
:100BB8002100DE005E08E100FD018B1720008E1B7E
:100BC800E82D8E311126853186317C268531873195
:100BD800882785312400951220008E1222000E15D8
:100BE80022000E150E1520008C1C0A2E0D14033041
:100BF8002100E0000830DF007830DE00DE0B022E36
:100C0800DF0B022EE00B022E20000D1021006C08D5
:100C18000319122E83318123853121008F319A27C0
:100C280085312100680803193F2E22000D08FF397D
:100C380020382100DE0020000D0821005E06003962
:100C48005E0620008D0022000D08FF39EF392100D3
:100C5800DE0020000D0821005E0600395E06200037
:100C68008D000E30210061020318632E0130DE0072
:100C78005E08E107632E22000D08FF3910382100B5
:100C8800DE0020000D0821005E0600395E06200007
:100C98008D0022000D08FF39DF392100DE00200019
:100CA8000D0821005E0600395E0620008D000A301E
:100CB8002100DE005E08E1008E3111268531210019
:100CC800EC08031DF42D6D0803196F2E0A308C31C2
:100CD800F8248531F42D210068080319782E61085D
:100CE8008C31F8248531F42D8D3189258531F42D09
:100CF8006330860001308700D230840000308500E0
:100D080006302000C10016001A00C10B872E2200F1
:100D18006C082100DB0022006B082100DA002200A9
:100D28006A082100D900220069082100D800DC01E6
:100D3800DD015D08803A2000C10080304102031DBA
:100D4800A82E063021005C020318EE2E1530200074
:100D5800C3004B30C200D130C100C10BB12EC20B51
:100D6800B12EC30BB12E000031302000AE00883008
:100D7800AF00D230C1004108B000D830C2004208EC
:100D8800B10021005D082000B301B30721005C0811
:100D98002000B201B207A0308431C0248631163059
:100DA8002000A8000030A900A03087311227863122
:100DB80001302100DC070030DD3D5D08803A20006D
:100DC800C10080304102031DEC2E063021005C0278
:100DD800031CAA2E15302000C3004B30C200D130AE
:100DE800C100C10BF52EC20BF52EC30BF52E00006A
:100DF8000A302000AE008830AF00D230C100410870
:100E0800B000A0308431C02486312A302000A800E8
:100E18000030A900A0308731122708002000B60052
:100E28002908A101A1072808A001A00736088E31CA
:100E3800A42687312000AA002A08B3003308AA0094
:100E48000430AA36890B252F2A08AB002B08B400DA
:100E580033080F39AA002A08B5000A303402031CE7
:100E6800372F3730382F3030AD000030AE002D0826
:100E7800AA002A08B4070A303502031C452F373068
:100E8800462F3030AF000030B0002F08AA002A08E3
:100E9800B507B101B2012808FF3EAA00FF30293D7D
:100EA800AB003208803AAC002B08803A2C02031DB4
:100EB8005F2F2A0831020318722F200031083607E5
:100EC800AA002A088600870101088C31A2248731EC
:100ED80001302000B1070030B23D4F2F2000340808
:100EE8008C31A2248731200035088C31A224873127
:100EF8000D308C31A22487310A308C31A2248731FD
:100F080023009E180800842F00302000B90001300B
:100F1800B8003530B700C330B6000C163908AA003F
:100F28003808A9003708A8003608A7008F313A27E3
:100F380087312000BA01BB013B08803AB5008030F8
:100F48003502031DA92F03303A020318C42F2000CD
:100F58003A08E23E8600870101088D312E25873147
:100F680001302000BA070030BB3D3B08803AB5008D
:100F780080303502031DC22F03303A02031CAB2F09
:100F880021006A088D312E2587312000BA01BB0166
:100F98003B08803AB50080303502031DD52F033059
:100FA8003A020318F02F20003A08E53E8600870130
:100FB80001088D312E25873101302000BA07003015
:100FC800BB3D3B08803AB50080303502031DEE2F4B
:100FD80003303A02031CD72F210069088D312E25D2
:100FE80022000E1520000C12080021001708C13934
:100FF8001438970017100800013400340A340034FC
:1010080064340034E834033410342734253473341A
:101018003134303434342C34343430342E343434A1
:10102800343431343934343434342C342D34383481
:1010380036342E3439343134323435342C34303477
:101048002C3430342C3430342C3430342C34313487
:1010580032342C3432342A34003425347334253471
:1010680073342C343034253464342C3430343034F4
:101078002C34303430342C34303430342A34003486
:0E10880028346E3475346C346C3429340034E2
:10190A00FE0012001E00FE0B862C003464008001CB
:10191A000131890B8C2C0034783021009904190884
:10192A00FC39023899000800283419341434563422
:10193A0044341434013445344E342000A0002300CA
:10194A009E1CA42C2000200823009A0008002400D2
:10195A009101141CAE2C11082000A0002008A1003F
:10196A009111210808003F30200098051808CF3946
:10197A002038980018159913FF309700CD3096003B
:10198A001814080021000E138E1723001E119C0143
:10199A0033309B001E131E129E169D171D131D1613
:1019AA00080022000E1105308D312E258C318C3124
:1019BA00AC242000A5002508A60022000E15200050
:1019CA002608080024344734503447344C344C3405
:1019DA0000342434503453345234463400343134CD
:1019EA003034333400342000A1002108A000A00DB7
:1019FA002100170820002006C1392006210097007F
:101A0A001714630021001710080021000E118E110F
:101A1A000E168E1222000E15240095121508F039A2
:101A2A000138950015121417941395160800200012
:101A3A00A300A201231C252D2008A1002108A2072A
:101A4A000310A00D0310A30CA308031D1F2D2208C9
:101A5A0008002000A400240011082000A000A10111
:101A6A002008A2002108A300911124082400910053
:101A7A002000911908003D2DF1007108F000790845
:101A8A00203E8600023087007008810033307906D4
:101A9A007A04031D532DF901FA0108000130F907F0
:101AAA000030FA3D08007B08203E8600023087009D
:101ABA0001082000A0002008A10033307B067C0426
:101ACA00031D6A2DFB01FC016E2D0130FB0700305E
:101ADA00FC3D2108080021000C1423000C142100ED
:101AEA001E088F3950389E00FC309E051E11833027
:101AFA009D050F309F049E139D171D14200011137E
:101B0A00210011170B1708002000A1012100170856
:101B1A00C1391C38970017149C2D01302000A000F1
:101B2A002008A107043021020318A02D6300210018
:101B3A00EC080319922D2100171008002000A401B7
:101B4A00A501201CAC2D2208A4072308A53D0130BD
:101B5A00A235A30D890BAD2D0130A136A00C890B3E
:101B6A00B22D21082004031DA62D2508A101A107D5
:101B7A002408A001A00708002434503453345234F6
:101B8A0046343134303433342C34303431342C3418
:101B9A00303431342C34303431342C343034303421
:101BAA002A340034243450345334523446343134D1
:101BBA00313437342C34313436342A340034210069
:101BCA008C1423008C1027009114921493018B1506
:101BDA0021008D1523008D11270095159415960166
:101BEA008B1521000C140C158C150C128C120C136D
:101BFA008C130D108D140D110D128D1220000D1065
:101C0A000D128D1223000D108D100D110D128D1253
:101C1A0021000E108E10080020000C131530A200AF
:101C2A004B30A100D130A000A00B192EA10B192E08
:101C3A00A20B192E000020000C170330A200083056
:101C4A00A1007830A000A00B282EA10B282EA20BF1
:101C5A00282E20000C131530A2004B30A100D130E1
:101C6A00A000A00B362EA10B362EA20B362E00009A
:101C7A0008002000290828040319662EAD01AD0AC0
:101C8A00A91B512E0130A835A90D890B482E013008
:101C9A00AC002C08AD07452E29082B02031D572E30
:101CAA0028082A02031C5D2E2808AA022908AB3B31
:101CBA000130A936A80C890B5E2E0130AD02031D36
:101CCA00512E2B08A901A9072A08A801A80708006C
:101CDA002000A501A6012108200403199D2EA701B1
:101CEA00A70AA11B822E0130A035A10D890B792EDE
:101CFA000130A4002408A707762E0130A535A60DC9
:101D0A00890B832E21082302031D8D2E200822020F
:101D1A00031C942E2008A2022108A33B251401309B
:101D2A00A136A00C890B952E0130A702031D822E25
:101D3A002608A101A1072508A001A0070800200084
:101D4A00A500A401A601A7012708803AA20021083C
:101D5A00803A2202031DB32E200826020318E32E1E
:101D6A00200026082507A20022088600870101080C
:101D7A00243A0319DE2E26082507A2002208860027
:101D8A00870101082A3A0319DE2E26082507A20030
:101D9A002208860087010108213A0319DE2E260847
:101DAA002507A2002208860087010108A30023084C
:101DBA00A4060130A6070030A73DA92E200024085A
:101DCA0008002000AC01A71FF12EA609A709A60A40
:101DDA000319A70AAC01AC0AA91FFC2EA809A90974
:101DEA00A80A0319A90A0130AA002A08AC06AD01FB
:101DFA00AE012708260403192B2FAB01AB0AA71B38
:101E0A00102F0130A635A70D890B072F0130AA0024
:101E1A002A08AB07042F0130AD35AE0D890B112FFF
:101E2A0027082902031D1B2F26082802031C222F1C
:101E3A002608A8022708A93B2D140130A736A60CAC
:101E4A00890B232F0130AB02031D102F2C08031915
:101E5A00332FAD09AE09AD0A0319AE0A2E08A70140
:101E6A00A7072D08A601A607080020002708AB002F
:101E7A002808AC002908AD002A08AE001030AF00CF
:101E8A00AE37AD0CAC0CAB0CAF0B452F2B08B0002A
:101E9A003008B1002708AB002808AC002908AD00BB
:101EAA002A08AE000830AF00AE37AD0CAC0CAB0C54
:101EBA00AF0B592F2B08B0003008B2002708AB002F
:101ECA002B08B3008C31D6248F3101392000AB00A6
:101EDA002B08B400B408031D672F22000E11063028
:101EEA008D312E258F3122000E158C31D6248F315B
:101EFA0002392000AB002B08B400340803197A2FEA
:101F0A0022000E1102308D312E258F31200031082A
:101F1A008D312E258F31200032088D312E258F31BB
:101F2A00200033088D312E2508002000EA01EB013C
:101F3A00A0308600013087005430840000308500CC
:101F4A001630D10016001A00D10BA72F21009116C6
:101F5A000B178B1720008E1BB52F8E3111268F3150
:101F6A00FD0116302000A8000030A9005430873146
:101F7A0012278F3121006B08031DFC2FEA30200045
:101F8A006B06031DCA2F60306A06031DF62F8E31B9
:101F9A0011268F3115302000D3004B30D200D130BA
:101FAA00D100D10BD62FD20BD62FD30BD62F0000B0
:101FBA0020008E1BE32F8E3111268F3186317C262D
:101FCA008F3121006B080319E62FEB012000EA018B
:101FDA00EB011630A8000030A900543087311227CF
:101FEA008F3101302000EA070030EB3DBF2FEB01B3
:061FFA0081311C210800EA
:020000040001F9
:04000E00ECF9FFFE0C
:00000001FF
