:040000008031A6287D
:100008007E14803120007F08F600911E2B282300E3
:100018009D1C10281D121D161908F20020006D08DD
:10002800A03E86008701720881000130F200720844
:10003800ED076D08FF3EA03E8600870101080A3AD9
:10004800031D2928EE01EE0A2A28EE019112111C3F
:100058003C282100111C3C28FF3020009700CD309F
:10006800960011107D0803193C2821009D142000DA
:100078002100110E890C890C0139F2002000110EA3
:10008800890C890C0139720503197A2833307906ED
:100098007A04031964287908013EF20000307A3D99
:1000A800F3007C087306031D5B287B08720600308A
:1000B80003190130F400F5017408F70075086E287B
:1000C8007C087B04003003190130F200F301720848
:1000D800F7007308F80078087704031D78282100D2
:1000E8001C0887313C278031200011138B1DA12863
:1000F8002700961DA128961120000D0CF200F20C85
:10010800720C0139F3002700140CF400F40C740C81
:100118000139730503199228FD01FD0A150CF20037
:10012800F20C720C0139F300031020008D1D03142A
:100138000030093D7305031DFD0176082000FF000E
:100148007E1009008031A828F901FA01FB01FC01A1
:10015800FD01EE01A0308400003085004230873177
:10016800A6278031A03084000130850033308731E4
:10017800A62780318731B2278031EF008330840091
:1001880087308500E2308600003087000A308731EA
:10019800AC27803195308400863085002030860079
:1001A800013087002A308731AC277E102000843147
:1001B8007A2C4330860001308700323084000030CA
:1001C800850007302000AC0016001A00AC0BE828A8
:1001D800D2308600003087003C3084000030850033
:1001E8000830AC0016001A00AC0BF628DA3086008E
:1001F8000030870044308400003085000830AC00AF
:1002080016001A00AC0B0429CC01CD014D08803A28
:10021800AC0080302C02031D132906304C02031851
:10022800332920004C08323E860087014C08A03E46
:10023800840085010008010603192429EF01EF0A4B
:100248000130CC070030CD3D4D08803AAC008030FD
:100258002C02031D312906304C02031C15292000ED
:100268004C08013ECC0000304D3DCD0077290030D0
:10027800A3000030A2000030A1000A30A0003F080F
:10028800A7003E08A6003D08A5003C08A40086314A
:100298003626803120002308BF002208BE0021082E
:1002A800BD002008BC004C08A03E8600870101085C
:1002B800D03EAC00FF3003180030AD002C08AE0073
:1002C8002D08AF000030AF1BFF30B000B1002E0882
:1002D800BC072F08BD3D3008BE3D3108BF3D013089
:1002E800CC070030CD3D4C08A03E860087010108B0
:1002F8002C3A031987294C08A03E8600870101087B
:100308002E3A031D3B294C08A03E860087010108B0
:100318002E3A031D95294C08013ECC0000304D3D76
:10032800CD004C08A03E8600870101082C3A03192D
:10033800DE290030A3000030A2000030A1000A30FE
:10034800A00004303C3E86008701403FA400413FA6
:10035800A500423FA600433FA700863136268031DC
:1003680020002308C3002208C2002108C100200879
:10037800C0004C08A03E860087010108D03EAC00B2
:10038800FF3003180030AD002C08AE002D08AF0078
:100398000030AF1BFF30B000B1002E08C0072F0897
:1003A800C13D3008C23D3108C33D0130CC070030A3
:1003B800CD3D95294C08013ECC0000304D3DCD0087
:1003C8004C08A03E8600870101082C3A0319F82939
:1003D8004C08A03E860087010108AC002C08B90033
:1003E8000130CC070030CD3D4C08013ECC00003038
:1003F8004D3DCD003B2A0030A3000030A200003064
:10040800A1000A30A0004708A7004608A600450832
:10041800A5004408A4008631362680312000230830
:10042800C7002208C6002108C5002008C4004C08DF
:10043800A03E860087010108D03EAC00FF300318BB
:100448000030AD002C08AE002D08AF000030AF1B07
:10045800FF30B000B1002E08C4072F08C53D300892
:10046800C63D3108C73D0130CC070030CD3D4C08B2
:10047800A03E8600870101082C3A03194B2A4C0834
:10048800A03E8600870101082E3A031DFF294C086B
:10049800A03E8600870101082E3A031D592A4C0800
:1004A800013ECC0000304D3DCD004C08A03E8600FA
:1004B800870101082C3A0319A22A0030A300003052
:1004C800A2000030A1000A30A0000430443E86009B
:1004D8008701403FA400413FA500423FA600433F9B
:1004E800A70086313626803120002308CB00220859
:1004F800CA002108C9002008C8004C08A03E860090
:1005080087010108D03EAC00FF3003180030AD0071
:100518002C08AE002D08AF000030AF1BFF30B00034
:10052800B1002E08C8072F08C93D3008CA3D310858
:10053800CB3D0130CC070030CD3D592A4C08013E57
:10054800CC0000304D3DCD004C08A03E8600870110
:1005580001082C3A0319BC2A4C08A03E86008701E2
:100568000108AC002C08BA000130CC070030CD3DA2
:100578004C08013ECC0000304D3DCD004D08AD008B
:100588004C08AC00CC0A0319CD0A2C08A03E860002
:10059800870101082C3A031DC22A4C08A03E860098
:1005A80087010108AC002C08BB003B08413A031D39
:1005B800DF2AEF010800EF01EF0A08002000BB0066
:1005C8003030B4003408BA002F08B5002E08B40043
:1005D800AE0A0319AF0A34088400350885000008FC
:1005E800B6003608C000C0080319E32B4008253AB6
:1005F80003190A2B4008B4003B0886008701340819
:1006080081000130B4003408BB07E82AB8013B2B4D
:100618003A08860087010108BC000030BD0001309F
:10062800B4003408BA073D083C04031D1F2B2F30C3
:10063800BC008630BD003C0884003D0885000008E9
:1006480000380319E82A3C0884003D0885000008A2
:10065800B4003B0886008701340881000130BC07DC
:100668000030BD3D0130B4003408BB071F2B2F08F4
:10067800B5002E08B400AE0A0319AF0A3408840086
:10068800350885000008C000003A0319E32B643AD6
:100698000319552B0D3A0319552B1A3A03190C2B2C
:1006A800E82A3A0886008701403FBC00413FBD0068
:1006B8000230B4003408BA07BD1F6B2B0330B400F6
:1006C8003408B804BC09BD09BC0A0319BD0AC00135
:1006D800C00A4008053A0319902B4008B400B50138
:1006E800B435B50D0030340784008630353D8500BB
:1006F800003FB600013FB70037083D02031D862BB7
:1007080036083C02031C902B0130B4003408C007A3
:100718004008053A031D712B3808033903199F2B2C
:100728002D30B4003B088600870134088100013071
:10073800B4003408BB074008B4003408B900FF30DF
:10074800B4003408B9073908FF3A0319E82A0A300F
:10075800A8000030A9003908B400B501B435B50DBA
:100768000030340784008630353D8500003FA00006
:10077800013FA1003D08A301A3073C08A201A2076D
:100788008531A125823120002108AB01AB07200863
:10079800AA01AA0786316626823120002808303E41
:1007A800B6003608C0004008B4003B088600870140
:1007B800340881000130B4003408BB07A32B3B0880
:1007C8008600870181010800E2308600003087003A
:1007D8005A3084000030850006302000C100160021
:1007E8001A00C10BF32B21006B082000E300210045
:1007F8006A082000E200210069082000E1002100C9
:1008080068082000E000E401E5016508803AC100BD
:1008180080304102031D122C063064020318522C4A
:1008280015302000C3004B30C200D130C100C10BCD
:100838001B2CC20B1B2CC30B1B2C00000A302000E6
:10084800AE008630AF005A30C1004108B0006030B9
:10085800C2004208B1006508B301B3076408B201D9
:10086800B20744308231E222833116302000A800DA
:100878000030A90044308431ED2483310130200058
:10088800E4070030E53D6508803AC1008030410248
:10089800031D502C06306402031C142C1530200054
:1008A800C3004B30C200D130C100C10B592CC20B60
:1008B800592CC30B592C00001D302000AE00863087
:1008C800AF005A30C1004108B0006030C200420891
:1008D800B10044308231E222833116302000A80072
:1008E8000030A90044308431ED240800873197276F
:1008F80084318631BF26843187312327843187317B
:100908005327843187317427843187319F27843175
:1009180087316527843101302000EA006A08ED003C
:100928008B178631E42684318331E82384311530EE
:100938002000EC004B30EB00D130EA00EA0BA22C8F
:10094800EB0BA22CEC0BA22C000015302000EC00C5
:100958004B30EB00D130EA00EA0BB02CEB0BB02C9B
:10096800EC0BB02C000087310627843120006E087C
:100978000319BA2C8031DD2084312000EE016F0884
:100988000319D62C22000D08FF3920382000EA0070
:100998000D086A0600396A068D0022000D08FF3925
:1009A800EF39E52C22000D08FF3910382000EA0045
:1009B8000D086A0600396A068D0022000D08FF3905
:1009C800DF392000EA000D086A0600396A068D0042
:1009D800A92C2000B4002908A101A1072808A0011A
:1009E800A007340885315F2584312000AA002A0831
:1009F800B3003308AA000430AA36890B002D2A0850
:100A0800AB002B08B50033080F39AA002A08B60036
:100A18000A303502031C122D3730132D3030AD004B
:100A28000030AE002D08AA002A08B5070A303602A1
:100A3800031C202D3730212D3030AF000030B0009E
:100A48002F08AA002A08B607B101B2012808FF3EFC
:100A5800AA00FF30293DAB003208803AAC002B08D1
:100A6800803A2C02031D3A2D2A08310203184D2D15
:100A7800200031083407AA002A08860087010108E7
:100A880087318D27843101302000B1070030B23D15
:100A98002A2D2000350887318D278431200036081B
:100AA80087318D2784310D3087318D2784310A3085
:100AB80087318D2708002000A500A401A601A70101
:100AC8002708803AA2002108803A2202031D6E2DD1
:100AD8002008260203189E2D200026082507A200BC
:100AE8002208860087010108243A0319992D26084F
:100AF8002507A20022088600870101082A3A03195F
:100B0800992D26082507A2002208860087010108DA
:100B1800213A0319992D26082507A20022088600E4
:100B280087010108A3002308A4060130A6070030A6
:100B3800A73D642D2000240808002000A501A60177
:100B4800210820040319D12DA701A70AA11BB62D3E
:100B58000130A035A10D890BAD2D0130A40024086A
:100B6800A707AA2D0130A535A60D890BB72D210899
:100B78002302031DC12D20082202031CC82D2008B2
:100B8800A2022108A33B25140130A136A00C890B31
:100B9800C92D0130A702031DB62D2608A101A10702
:080BA8002508A001A0070800C8
:100C0000013400340A34003464340034E8340334EA
:100C10001034273425347334253473342C34303471
:100C2000253464342C34303430342C343034303483
:100C30002C34303430342A340034253473342534A1
:100C400073342C34303431342C34303431342C344B
:100C5000303431342C34303430342A3400342834B5
:100C60006E3475346C346C34293400340030200018
:100C7000AB000030AA000030A9000030A800201C02
:100C8000492E2408A8072508A93D2608AA3D2708BB
:100C9000AB3D0130A435A50DA60DA70D890B4A2E3D
:100CA0000130A336A20CA10CA00C890B512E2308F5
:100CB000220421042004031D3F2E2B08A3002A0830
:100CC000A2002908A1002808A00008002000290887
:100CD000280403198E2EAD01AD0AA91B792E01300F
:100CE000A835A90D890B702E0130AC002C08AD077A
:100CF0006D2E29082B02031D7F2E28082A02031CB3
:100D0000852E2808AA022908AB3B0130A936A80C79
:100D1000890B862E0130AD02031D792E2B08A90107
:100D2000A9072A08A801A80708002434503453341E
:100D3000523446343134303433342C34303431345A
:100D40002C34303431342C34303430342C3430348E
:100D500030342A340034243450345334523446343A
:100D60003134313437342C34313436342A3400348D
:100D700024344734503447344C344C34003421004C
:100D80008D1523008D1127009515941596018B154F
:100D900021000C148C140C158C150C128C120C13D5
:100DA0008C130D108D140D110D128D1220000D10CD
:100DB0000D128D1223000D108D100D110D128D12BC
:100DC00021000E108E10080021000C1320000C13BF
:100DD0001530A2004B30A100D130A000A00BEE2EA8
:100DE000A10BEE2EA20BEE2E000020000C170330FC
:100DF000A2000830A1007830A000A00BFD2EA10BAE
:100E0000FD2EA20BFD2E20000C13080020308600C2
:100E10000130870038308400003085001630200013
:100E2000B70016001A00B70B112F210091160B17EF
:100E30008B172000ED011630A8000030A9003830D3
:100E40008431ED24080021000C1423000C1421002F
:100E50001E088F3950389E00FC309E051E118330CD
:100E60009D050F309F049E139D171D142000111324
:100E7000210011170B170800F1007108F000790824
:100E8000A03E86000130870070088100333079066B
:100E90007A04031D4E2FF901FA0108000130F90709
:100EA0000030FA3D080021000E118E110E168E1230
:100EB00022000E11240095121508F0390138950012
:100EC0001512141794139516080021000E138E178F
:100ED00023001E119C0133309B001E131E129E1610
:100EE0009D171D131D1608003F3020009805180897
:100EF000CF392038980018159913FF309700CD305E
:100F000096001814080024345034533452344634B4
:100F1000003431343034333400342000A000230056
:100F20009E1C8F2F2000200823009A000800783094
:100F3000210099041908FC390238990008002100A1
:100F40001708C13914389700171008006400800191
:100F50000131890BA72F0034FE0012001E00FE0B8A
:060F6000AD2F0034013446
:020000040001F9
:04000E00ECF9FFFE0C
:00000001FF
