:0400000080313A28E9
:100008007E14803120007F08F2000B1D21287A0819
:1000180003191D2821005B087906031D15285A08B5
:10002800780603191C288631CB26803122009900D6
:1000380020007130200095000B118B1D35282700FA
:10004800931D35289311911D2E2820008C1D2E28D4
:10005800EC01EC0A2700921D352820008C19352860
:10006800EC0172082000FF007E10090080313C2856
:10007800F801F901FA01EB01EC01ED01A03084006F
:10008800003085003D30873167277E10200086319B
:10009800462E2000DB01DC010A30A2000030A3005C
:1000A800210054082000C300C4014308A4004408E8
:1000B800A5008531AA25803120002208303EC500E0
:1000C8004508C6000A30F3000030F4002100540847
:1000D8002000C300C4014308F5004408F600853138
:1000E800FE2580317308303E2000C5004508C70052
:1000F8004430C3004308C8000A30A2000030A300FF
:10010800210055082000C300C4014308A400440886
:10011800A5008531AA25803120002208303EC5007F
:100128004508C9000A30F3000030F40021005508E2
:100138002000C300C4014308F5004408F6008531D7
:10014800FE2580317308303E2000C5004508CA00EE
:100158004D30C3004308CB000A30A2000030A30092
:10016800210056082000C300C4014308A400440825
:10017800A5008531AA25803120002208303EC5001F
:100188004508CC000A30F3000030F400210056087E
:100198002000C300C4014308F5004408F600853177
:1001A800FE2580317308303E2000C5004508CD008B
:1001B8005830C3004308CE006B08C3004308CF0083
:1001C8006430A2000030A300210057082000C300BB
:1001D800C4014308A4004408A5008531AA2580313C
:1001E80020002208303EC5004508D0000A30A20091
:1001F8000030A300210057082000C300C4014308B1
:10020800F5004408F6006430F3000030F40085314E
:10021800FE25803174082000A501A5077308A401F4
:10022800A4078531AA25803120002208303EC50068
:100238004508D1000A30F3000030F40021005708C7
:100248002000C300C4014308F5004408F6008531C6
:10025800FE2580317308303E2000C5004508D200D5
:100268004430C3004308D3000A30A2000030A30082
:10027800210058082000C300C4014308A400440812
:10028800A5008531AA25803120002208303EC5000E
:100298004508D4000A30F3000030F4002100580863
:1002A8002000C300C4014308F5004408F600853166
:1002B800FE2580317308303E2000C5004508D50072
:1002C8004D30C3004308D6000A30A2000030A30016
:1002D800210059082000C300C4014308A4004408B1
:1002E800A5008531AA25803120002208303EC500AE
:1002F8004508D7000A30F3000030F40021005908FF
:100308002000C300C4014308F5004408F600853105
:10031800FE2580317308303E2000C5004508D8000E
:100328005830C3004308D90021005C082000C300EE
:100338004308DA00ED08031DA829ED0803190C1A73
:100348007C2B6C0803197C2B0530C5000F30C400CA
:10035800F430C300C30BAE29C40BAE29C50BAE29BC
:1003680000302000B4000030B3000030B20000308C
:10037800B1000030B8000030B7000C30B6000730CC
:10038800B5008431DC24803120007C2B053020002E
:10039800C5000F30C400F430C300C30BD129C40B0F
:1003A800D129C50BD1293D2B00302000B4000030E5
:1003B800B3000C30B2000730B1000030B800003094
:1003C800B7001530B6006030B5008431DC248031C8
:1003D800772B00302000B4000030B3001530B20095
:1003E8006030B1000030B8000030B7002030B600EF
:1003F8008830B5008431DC248031772B0030200030
:10040800B4000030B3002030B2008830B1000030B2
:10041800B8000030B7002D30B6008530B500843103
:10042800DC248031772B00302000B4000030B3008A
:100438002D30B2008530B1000030B8000030B70070
:100448003430B6006A30B5008431DC248031772B33
:1004580000302000B4000030B3003430B2006A30FD
:10046800B1000030B8000030B7003B30B6000430AF
:10047800B5008431DC248031772B00302000B400B3
:100488000030B3003B30B2000430B1000030B80097
:100498000030B7004530B6001130B5008431DC2497
:1004A8008031772B00302000B4000030B300453095
:1004B800B2001130B1000030B8000030B700503041
:1004C800B600CF30B5008431DC248031772B003082
:1004D8002000B4000030B3005030B200CF30B1007B
:1004E8000030B8000030B7005C30B6007A30B50094
:1004F8008431DC248031772B00302000B4000030B8
:10050800B3005C30B2007A30B1000030B80000307F
:10051800B7006330B6000030B5008431DC24803188
:10052800772B00302000B4000030B3006330B200F5
:100538000030B1000030B8000030B7006D30B600B0
:10054800A030B5008431DC248031772B00302000C6
:10055800B4000030B3006D30B200A030B1000030FC
:10056800B8000030B7007830B600AF30B50084313D
:10057800DC248031772B00302000B4000030B30039
:100588007830B200AF30B1000030B8000030B700AA
:100598008230B6001430B5008431DC248031772BEA
:1005A80000302000B4000030B3008230B2001430B4
:1005B800B1000030B8000030B7008D30B6004F30C1
:1005C800B5008431DC248031772B00302000B40062
:1005D8000030B3008D30B2004F30B1000030B800A9
:1005E8000030B7009630B6007230B5008431DC2494
:1005F8008031772B00302000B4000030B3009630F3
:10060800B2007230B1000030B8000030B700A4303A
:10061800B600C830B5008431DC248031772B003037
:100628002000B4000030B300A430B200C830B100DC
:100638000030B8000030B700B130B6001030B50057
:100648008431DC248031772B00302000B400003066
:10065800B300B130B2001030B1000030B800003043
:10066800B700BB30B6006830B5008431DC24803177
:10067800772B20005B08463E860087010108303A48
:100688000319D829013A0319ED29033A0319022A53
:10069800013A0319172A073A03192C2A013A0319B0
:1006A800412A033A0319562A013A03196B2A0F3AC9
:1006B8000319802A013A0319952A7D3A0319FE2A5B
:1006C800013A0319D42A083A0319132B033A0319D8
:1006D800AA2A1D3A0319BF2A043A0319E92A0F3A2C
:1006E8000319282B772B01302000DB070030DC3D75
:1006F8002000ED08031D882BED08031D08000C1AC7
:1007080008006C08031908005C08803AC3008030B0
:100718004302031D912B15305B02031CCA292000DC
:10072800080000302000E4000030E300BB30E200A5
:100738006830E1000030EA000030E9000030E800ED
:100748000030E7008631F426833100302000A50010
:100758000030A400BB30A3006830A20085315225C8
:10076800833120000C1EC02B2400951220008E120D
:1007780022000E15FA010800873145278331200031
:10078800DD00DE01DF01E0016008EA005F08E90042
:100798005E08E8005D08E7006708DD006808DE001D
:1007A8006908DF006A08E0000830DD35DE0DDF0D7E
:1007B800E00D890BD92B6008EA005F08E9005E08A4
:1007C800E8005D08E7008731452783312000DD0018
:1007D800DE01DF01E0015D08E7075E08E83D5F082C
:1007E800E93D6008EA3D6708DD006808DE00690841
:1007F800DF006A08E0000830DD35DE0DDF0DE00DB2
:10080800890B002C6008EA005F08E9005E08E80030
:100818005D08E7008731452783312000DD00DE01D0
:10082800DF01E0015D08E7075E08E83D5F08E93D94
:100838006008EA3D8731452783312000DD005D08E7
:100848002100D4008731452783312000DD005D0871
:100858002100D5008731452783312000DD005D0860
:100868002100D6008731452783312000DD005D084F
:10087800EB008731452783312000DD005D0821002A
:10088800D7008731452783312000DD005D0821002E
:10089800D8008731452783312000DD005D0821001D
:1008A800D9008731452783312000DD005D0821000C
:1008B800DC00FA01FA0A9C2C333021005A065B044A
:1008C80003197E2C5A08013E2000DD00003021006B
:1008D8005B3D2000DE0079085E06031D752C780854
:1008E8005D06003003190130DF00E0015F08E50014
:1008F8006008892C79087804003003190130200039
:10090800DD00DE015D08E5005E08E60066086504B6
:10091800031D9C2C0130E1070030E23D0030E33D2F
:100928000030E43D8731452783318631B426833151
:100938002000ED08031DA72CED0803190C1ABB2C89
:100948006C080319BB2C6A08803ADD006408803AF9
:100958005D02031DB92C63086902031DB92C6208E6
:100968006802031DB92C610867020318602C220075
:100978000E152000ED08031DC82CED0803190C1AEC
:10098800D22C6C080319D22C21005B087906031DB0
:10099800CF2C5A087806031DBD2C200080314D202D
:1009A8002400951220008E1222000E15FA0108006C
:1009B80020003408C0003308BF003208BE003108E8
:1009C800BD00FA01FA0A3408A5003308A400320869
:1009D800A3003108A2008531522584312F2D3330F0
:1009E80021005A065B040319112D5A08013E200004
:1009F800B900003021005B3D2000BA0079083A06B2
:100A0800031D082D78083906003003190130BB0092
:100A1800BC013B08C1003C081C2D79087804003053
:100A2800031901302000B900BA013908C1003A0899
:100A3800C20042084104031D2F2D0130BD070030BC
:100A4800BE3D0030BF3D0030C03D87314527843171
:100A58008631B42684312000ED08031D3A2DED08B7
:100A680003190C1A4E2D6C0803194E2D3808803ABC
:100A7800B9004008803A3902031D4C2D3F0837025F
:100A8800031D4C2D3E083602031D4C2D3D08350232
:100A98000318F32C22000E15FA0108002000220882
:100AA800A6002308A7002408A8002508A9001030DC
:100AB800AA00A937A80CA70CA60CAA0B5D2D26081E
:100AC800AB002B08AE002208A6002308A7002408C4
:100AD800A8002508A9000830AA00A937A80CA70C67
:100AE800A60CAA0B712D2608AB002B08AF00220814
:100AF800A6002608B0000C1A0800842D0C1A932DA5
:100B080087311827853101392000A600A70126085A
:100B1800AC002708AD002D082C04031D822D0C1AEB
:100B2800080022000E110330873106278531200086
:100B38002E0887310627853120002F0887310627A0
:100B48008531200030088731062708002000A801D9
:100B5800A31FB52DA209A309A20A0319A30AA80174
:100B6800A80AA51FC02DA409A509A40A0319A50A46
:100B78000130A6002608A806A901AA012308220414
:100B88000319EF2DA701A70AA31BD42D0130A23505
:100B9800A30D890BCB2D0130A6002608A707C82D69
:100BA8000130A935AA0D890BD52D23082502031D6F
:100BB800DF2D22082402031CE62D2208A4022308A4
:100BC800A53B29140130A336A20C890BE72D01306F
:100BD800A702031DD42D28080319F72DA909AA096E
:100BE800A90A0319AA0A2A08A301A3072908A20126
:100BF800A20708002000A101F61F092EF509F60931
:100C0800F50A0319F60AA101A10AF41F102EF30927
:100C1800F409F30A0319F40A740873040319372E44
:100C2800A001A00AF41B222E0130F335F40D890B24
:100C3800192E0130F7007708A007162E74087602DF
:100C4800031D282E73087502031C2E2E7308F50247
:100C58007408F63B0130F436F30C890B2F2E013063
:100C6800A002031D222E210803193F2EF509F609BB
:100C7800F50A0319F60A7608F401F4077508F30172
:100C8800F307080087315127863186317A26863165
:100C98008631E12686318631F42686318731382738
:100CA80086318731602786310B178B1722000E1586
:100CB8002400951220008E1222000E158731292754
:100CC800863120006C08031D0C1A6F2E8331952382
:100CD80086312000EC016D080319762E87315927DB
:100CE8008631200086319C268631602E21008C15A5
:100CF80023008C1127009115921593018B15210063
:100D08000C100C110C1623000C1221000C138C1360
:100D18000D148D140D158D110D128D1220008D12CC
:100D280021000E108E140E138E1320000E100800D2
:100D3800F40121001708C1391A3897001714AD2E8D
:100D48000130F3007308F407043074020318B12E5D
:100D580063002000EC080319A42E210017100800D6
:100D6800F4007408F30021005A08A03E86008701A9
:100D78007308810033305A065B04031DC62EDA015E
:100D8800DB0108000130DA070030DB3D0800780895
:100D9800A03E860087010108F0007008F10033309A
:100DA80078067904031DDB2EF801F901DF2E0130E6
:100DB800F8070030F93D7108080021008C168C10E6
:100DC8002A001108FC3902389100111791172200E6
:100DD80098121812F33098051810981799010800FE
:100DE80021000E118E110E168E1222000E152400EF
:100DF80095121508F0390138950015121417941337
:100E080095160800F70024001108F300F401730890
:100E1800F5007408F600200091117708240091006D
:100E2800200091190800142F22000E110530873177
:100E380006278731873145272000A0002008A10018
:100E480022000E1520002108080020000E14003290
:100E580000320032003220008E1C352FED01ED0AE1
:100E6800362FED010E1008008B120B112100951280
:100E780095111514951015117130200095008B16D9
:100E8800080024009101141C472F1108F30073086F
:100E9800F4002000911174080800783021009904AA
:100EA8001908FC3902389900080020008D16833192
:100EB800952320008D12080021001708C1391A381F
:100EC800970017100800640080010131890B682F12
:020ED8000034E4
:020000040001F9
:04000E00ECF9FFFE0C
:00000001FF
