:0400000080313B28E8
:100008007E14803120007F08F2000B1D2228210079
:100018005B0803191E28790820006C06031D1628A2
:1000280078086B0603191D28863156268031220070
:10003800990021004830200095000B118B1D3628AF
:100048002700931D36289311911D2F2820008C1D01
:100058002F28FA01FA0A2700921D362820008C1949
:100068003628FA0172082000FF007E10090080314E
:100078003D28F801F901FA01EB01EC01ED01A0308E
:100088008400003085003C30873104277E10200032
:100098008631082E2000DB01DC010A30A200003086
:1000A800A300210053082000C300C4014308A40092
:1000B8004408A50085311B25803120002208303EE8
:1000C800C5004508C6000A30F3000030F4002100DE
:1000D80053082000C300C4014308F5004408F60093
:1000E8008531C02580317308303E2000C5004508A1
:1000F800C7004430C3004308C8000A30A2000030DB
:10010800A300210054082000C300C4014308A40030
:100118004408A50085311B25803120002208303E87
:10012800C5004508C9000A30F3000030F40021007A
:1001380054082000C300C4014308F5004408F60031
:100148008531C02580317308303E2000C500450840
:10015800CA004D30C3004308CB000A30A20000306B
:10016800A300210055082000C300C4014308A400CF
:100178004408A50085311B25803120002208303E27
:10018800C5004508CC000A30F3000030F400210017
:1001980055082000C300C4014308F5004408F600D0
:1001A8008531C02580317308303E2000C5004508E0
:1001B800CD005830C3004308CE0021005A08200063
:1001C800C3004308CF006430A2000030A300210020
:1001D80056082000C300C4014308A4004408A50031
:1001E80085311B25803120002208303EC500450896
:1001F800D0000A30A2000030A300210056082000D9
:10020800C300C4014308F5004408F6006430F30055
:100218000030F4008531C025803174082000A50124
:10022800A5077308A401A40785311B258031200088
:100238002208303EC5004508D1000A30F3000030DE
:10024800F400210056082000C300C4014308F5004B
:100258004408F6008531C02580317308303E2000FF
:10026800C5004508D2004430C3004308D3000A3013
:10027800A2000030A300210057082000C300C401D9
:100288004308A4004408A50085311B2580312000BF
:100298002208303EC5004508D4000A30F30000307B
:1002A800F400210057082000C300C4014308F500EA
:1002B8004408F6008531C02580317308303E20009F
:1002C800C5004508D5004D30C3004308D6000A30A4
:1002D800A2000030A300210058082000C300C40178
:1002E8004308A4004408A50085311B25803120005F
:1002F8002208303EC5004508D7000A30F300003018
:10030800F400210058082000C300C4014308F50088
:100318004408F6008531C02580317308303E20003E
:10032800C5004508D8005830C3004308D90021004B
:1003380059082000C3004308DA00542B0530200078
:10034800C5000F30C400F430C300C30BA929C40B87
:10035800A929C50BA929152B00302000B4000030AD
:10036800B3000030B2000030B1000030B8000030F7
:10037800B7001530B6003330B5008431A52480317C
:100388004F2B00302000B4000030B3001530B2000D
:100398003330B1000030B8000030B7002530B60067
:1003A800AB30B5008431A52480314F2B00302000BC
:1003B800B4000030B3002530B200AB30B1000030DB
:1003C800B8000030B7003730B600E630B5008431E9
:1003D800A52480314F2B00302000B4000030B3003A
:1003E8003730B200E630B1000030B8000030B70056
:1003F8004930B6007A30B5008431A52480314F2BBE
:1004080000302000B4000030B3004930B2007A3028
:10041800B1000030B8000030B7005E30B6003330AD
:10042800B5008431A52480314F2B00302000B40062
:100438000030B3005E30B2003330B1000030B80095
:100448000030B7007030B6001730B5008431A524ED
:1004580080314F2B00302000B4000030B3007030E2
:10046800B2001730B1000030B8000030B700843057
:10047800B6007F30B5008431A52480314F2B003081
:100488002000B4000030B3008430B2007F30B100E7
:100498000030B8000030B7009530B6009C30B50089
:1004A8008431A52480314F2B00302000B400003067
:1004B800B3009530B2009C30B1000030B800003075
:1004C800B700A730B6003230B5008431A52480319A
:1004D8004F2B00302000B4000030B300A730B2002A
:1004E8003230B1000030B8000030B700B930B60083
:1004F800FF30B5008431A52480314F2B0030200017
:10050800B4000030B300B930B200FF30B1000030A1
:10051800B8000030B700CB30B6003930B5008431B0
:10052800A52480314F2B00302000B4000030B300E8
:10053800CB30B2003930B1000030B8000030B7001D
:10054800DB30B600E930B5008431A52480314F2B6B
:1005580000302000B4000030B300DB30B200E930D6
:10056800B1000030B8000030B700EB30B6005A30A8
:10057800B5008431A52480314F2B00302000B40011
:100588000030B300EB30B2005A30B1000030B80090
:100598000030B700FE30B6008130B5008431A524A4
:1005A80080314F2B00302000B4000030B300FE3003
:1005B800B2008130B1000030B8000130B70012300D
:1005C800B6003A30B5008431A52480314F2B003075
:1005D8002000B4000130B3001230B2003A30B1004C
:1005E8000030B8000130B7002030B600EA30B5005E
:1005F8008431A52480314F2B00302000B400013015
:10060800B3002030B200EA30B1000030B800013049
:10061800B7003530B600C030B5008431A52480312C
:100628004F2B20005B08463E860087010108303AC0
:100638000319B029013A0319C529033A0319DA291C
:10064800013A0319EF29073A0319042A013A031951
:10065800192A033A03192E2A013A0319432A0F3A91
:100668000319582A013A03196D2A7D3A0319D62A23
:10067800013A0319AC2A083A0319EB2A033A031979
:10068800822A1D3A0319972A043A0319C12A0F3AF4
:100698000319002B4F2B01302000DB070030DC3D15
:1006A800ED08031D5F2BED08031D08000C1A080058
:1006B8007A08031908005C08803AC30080304302B6
:1006C800031D682B15305B02031CA22920000800BB
:1006D80000302000E4000130E3003530E200C03093
:1006E800E1000030EA000030E9000030E8000030A6
:1006F800E70086319626833100302000A5000130BE
:10070800A4003530A300C030A20085316F258331A5
:100718008631D82683312000DD00DE01DF01E001CB
:100728006008EA005F08E9005E08E8005D08E70085
:100738006708DD006808DE006908DF006A08E00075
:100748000830DD35DE0DDF0DE00D890BA52B6008C7
:10075800EA005F08E9005E08E8005D08E700863106
:10076800D82683312000DD00DE01DF01E0015D08CD
:10077800E7075E08E83D5F08E93D6008EA3D67086D
:10078800DD006808DE006908DF006A08E00008305C
:10079800DD35DE0DDF0DE00D890BCC2B6008EA009E
:1007A8005F08E9005E08E8005D08E7008631D826A2
:1007B80083312000DD00DE01DF01E0015D08E7078D
:1007C8005E08E83D5F08E93D6008EA3D8631D826C5
:1007D80083312000DD005D082100D3008631D82652
:1007E80083312000DD005D082100D4008631D82641
:1007F80083312000DD005D082100D5008631D82630
:1008080083312000DD005D082100DA008631D8261A
:1008180083312000DD005D082100D6008631D8260E
:1008280083312000DD005D082100D7008631D826FD
:1008380083312000DD005D082100D8008631D826EC
:1008480083312000DD005D082100D900DB01DB0ACF
:10085800662C3330780679040319482C7808013E51
:100868002000DD000030793DDE006C085E06031DC7
:100878003F2C6B085D06003003190130DF00E001F2
:100888005F08E5006008532C20006C086B040030FA
:1008980003190130DD00DE015D08E5005E08E600B1
:1008A80066086504031D662C0130E1070030E23D4F
:1008B8000030E33D0030E43D8631D826833186316F
:1008C8006D2683312000ED08031D712CED080319F6
:1008D8000C1A852C7A080319852C6A08803ADD00E1
:1008E8006408803A5D02031D832C63086902031DB6
:1008F800832C62086802031D832C610867020318B1
:100908002D2C22000E152000ED08031D922CED0859
:1009180003190C1A9A2C7A0803199A2C79086C0670
:10092800031D982C78086B06031D872C80314E20F8
:100938002400951220008E1222000E152100DB01E2
:10094800080020003408C0003308BF003208BE0089
:100958003108BD002100DB01DB0A20003408A500B6
:100968003308A4003208A3003108A20085316F259E
:100978008431F72C3330780679040319D92C780898
:10098800013E2000B9000030793DBA006C083A06F3
:10099800031DD02C6B083906003003190130BB0049
:1009A800BC013B08C1003C08E42C20006C086B0427
:1009B800003003190130B900BA013908C1003A08FA
:1009C800C20042084104031DF72C0130BD07003066
:1009D800BE3D0030BF3D0030C03D8631D826843151
:1009E80086316D2684312000ED08031D022DED08A7
:1009F80003190C1A162D7A080319162D3808803A8F
:100A0800B9004008803A3902031D142D3F08370207
:100A1800031D142D3E083602031D142D3D08350212
:100A28000318BE2C22000E152100DB01080020004F
:100A3800A801A31F262DA209A309A20A0319A30A24
:100A4800A801A80AA51F312DA409A509A40A0319FC
:100A5800A50A0130A6002608A806A901AA012308AC
:100A680022040319602DA701A70AA31B452D0130F5
:100A7800A235A30D890B3C2D0130A6002608A70737
:100A8800392D0130A935AA0D890B462D23082502D9
:100A9800031D502D22082402031C572D2208A402EE
:100AA8002308A53B29140130A336A20C890B582D25
:100AB8000130A702031D452D28080319682DA9092F
:100AC800AA09A90A0319AA0A2A08A301A307290837
:100AD800A201A207080020002208A6002308A700F8
:100AE8002408A8002508A9001030AA00A937A80CD6
:100AF800A70CA60CAA0B7A2D2608AB002B08AE0073
:100B08002208A6002308A7002408A8002508A90091
:100B18000830AA00A937A80CA70CA60CAA0B8E2D82
:100B28002608AB002B08AF002208A6002608B00054
:100B38008631BA26853101392000A600A70126088A
:100B4800AC002708AD002D082C04031D9C2D2200A5
:100B58000E1103308631A826853120002E088631F3
:100B6800A826853120002F088631A8268531200047
:100B780030088631A82608002000A101F61FCB2DD9
:100B8800F509F609F50A0319F60AA101A10AF41FE5
:100B9800D22DF309F409F30A0319F40A740873044B
:100BA8000319F92DA001A00AF41BE42D0130F33537
:100BB800F40D890BDB2D0130F7007708A007D82D3D
:100BC80074087602031DEA2D73087502031CF02DC4
:100BD8007308F5027408F63B0130F436F30C890B00
:100BE800F12D0130A002031DE42D21080319012E67
:100BF800F509F609F50A0319F60A7608F401F40767
:100C08007508F301F30708008631EE268631863130
:100C18003726863186318326863186319626863177
:100C28008631CB2686318631FD2686310B178B1708
:100C380022000E152400951220008E1222000E1597
:100C48008631E42686317A0803192E2E83316C23E7
:100C58008631FA0120006D080319352E8631F626F3
:100C680086316300222E21008C1523008C11270069
:100C78009115921593018B1521000C100C110C166F
:100C88000C138C130D148D140D158D110D128D125E
:100C980020008D1221000E108E140E138E132000CA
:100CA8000E10080020006B08A03E8600870101088E
:100CB800F0007008F10033306B066C04031D672EDA
:100CC800EB01EC016B2E0130EB070030EC3D7108B5
:100CD8000800F4007408F3007808A03E8600870135
:100CE80073088100333078067904031D7E2EF801DD
:100CF800F90108000130F8070030F93D080021002B
:100D08008C168C102A001108FC3902389100111732
:100D18009117220098121812F33098051810981796
:100D28009901080021000E118E110E168E12220054
:100D38000E15240095121508F03901389500151282
:100D48001417941395160800F70024001108F300EF
:100D5800F4017308F5007408F60020009111770873
:100D680024009100200091190800B62E22000E11CF
:100D780005308631A82686318631D8262000A00085
:100D88002008A10022000E152000210808008B125F
:100D98000B11210095129511151095101511483059
:100DA800200095008B16080024009101141CDA2EEF
:100DB8001108F3007308F40020009111740808006A
:100DC80020000E148E1CEB2EED01ED0AEC2EED0129
:100DD8000E1008007830210099041908FC390238EF
:100DE8009900080020008D1683316C2320008D1295
:100DF800080021001708C1391A3897001710080091
:0C0E0800640080010131890B052F0034CB
:020000040001F9
:04000E00ECF9FFFE0C
:00000001FF
