:0400000080313828EB
:100008007E14803120007F08F9000B1D2028550838
:1000180003191C2871087306031D1428700872063A
:1000280003191C2880317D2080312200990020008E
:100038004830200095000B110B1C33282700931D16
:10004800332820008C1D332854085304003003192A
:100058000130F700F8017708D3007808D400790850
:100068002000FF007E10090080313A28F001F101DC
:10007800F201F301F40120308400003085003630AD
:100088008031D1207E1020008031672821008C1516
:100098002700911593018B1521000C100C118C155C
:1000A8000C160C138C130D148D140D158D110D12C7
:1000B8008D1220008D1221000E108E140E138E1337
:1000C80020000E1008008031C220803180314A2083
:1000D80080318031932080318031A6208031803179
:1000E800B82080318031CA2080310B1722000E15CC
:1000F8007C287208203E860087010108F5007508F3
:10010800F600333072067304031D8D28F201F301E3
:1001180091280130F2070030F33D760808002100ED
:100128008C168C102A001108FC390238910011171E
:100138009117220098121812F33098051810981782
:100148009901080021000E118E110E168E12220040
:100158000E11240095121508F03901389500151272
:1001680014179413951608008B120B112100951281
:1001780095154830200095008B160800783021002E
:1001880099041908FC390238990008002100170859
:10019800C1391A389700171408006400800101312A
:0601A800890BD22800348F
:020000040001F9
:04000E00ECF9FFFE0C
:00000001FF
