:0400000080313928EA
:100008007E14803120007F08F2000B1D20287A081A
:1000180003191C2869086B06031D142868086A065A
:1000280003191C288631E22680312200990020001D
:100038007130200095000B118B1D34282700931D6B
:1000480034289311911D2D2820008C1D2D28ED0199
:10005800ED0A2700921D342820008C193428ED0160
:1000680072082000FF007E10090080313B28F9014A
:10007800FA016830840000308500073087316E2728
:100088008031A0308400003085003A3087316E27F7
:100098007E1020008631542E2000D701D8010A3066
:1000A800A2000030A300210054082000BF00C001B6
:1000B8003F08A4004008A5008531B82580312000FC
:1000C8002208303EC1004108C2000A30F300003067
:1000D800F400210054082000BF00C0013F08F500CB
:1000E8004008F60086310C2680317308303E200027
:1000F800C1004108C3004430BF003F08C4000A30B3
:10010800A2000030A300210055082000BF00C00154
:100118003F08A4004008A5008531B825803120009B
:100128002208303EC1004108C5000A30F300003003
:10013800F400210055082000BF00C0013F08F50069
:100148004008F60086310C2680317308303E2000C6
:10015800C1004108C6004D30BF003F08C7000A3043
:10016800A2000030A300210056082000BF00C001F3
:100178003F08A4004008A5008531B825803120003B
:100188002208303EC1004108C8000A30F3000030A0
:10019800F400210056082000BF00C0013F08F50008
:1001A8004008F60086310C2680317308303E200066
:1001B800C1004108C9005830BF003F08CA006C0898
:1001C800BF003F08CB006430A2000030A30021002C
:1001D80057082000BF00C0013F08A4004008A50040
:1001E8008531B825803120002208303EC100410801
:1001F800CC000A30A2000030A300210057082000DC
:10020800BF00C0013F08F5004008F6006430F30065
:100218000030F40086310C26803174082000A501D6
:10022800A5077308A401A4078531B82580312000EB
:100238002208303EC1004108CD000A30F3000030EA
:10024800F400210057082000BF00C0013F08F50056
:100258004008F60086310C2680317308303E2000B5
:10026800C1004108CE004430BF003F08CF000A302B
:10027800A2000030A300210058082000BF00C001E0
:100288003F08A4004008A5008531B825803120002A
:100298002208303EC1004108D0000A30F300003087
:1002A800F400210058082000BF00C0013F08F500F5
:1002B8004008F60086310C2680317308303E200055
:1002C800C1004108D1004D30BF003F08D2000A30BC
:1002D800A2000030A300210059082000BF00C0017F
:1002E8003F08A4004008A5008531B82580312000CA
:1002F8002208303EC1004108D3000A30F300003024
:10030800F400210059082000BF00C0013F08F50093
:100318004008F60086310C2680317308303E2000F4
:10032800C1004108D4005830BF003F08D500790803
:10033800BF003F08D600EE08031DA929EE080319DF
:100348000C1A7D2B6D0803197D2B0530C1000F3069
:10035800C000F430BF00BF0BAF29C00BAF29C10BE1
:10036800AF2900302000B0000030AF000030AE00F0
:100378000030AD000030B4000030B3000C30B200E3
:100388000730B1008431E724803120007D2B05300F
:100398002000C1000F30C000F430BF00BF0BD229CD
:1003A800C00BD229C10BD2293E2B00302000B0004F
:1003B8000030AF000C30AE000730AD000030B400A4
:1003C8000030B3001530B2006030B1008431E7244A
:1003D8008031782B00302000B0000030AF0015309D
:1003E800AE006030AD000030B4000030B300203003
:1003F800B2008830B1008431E7248031782B003096
:100408002000B0000030AF002030AE008830AD00D2
:100418000030B4000030B3002D30B2008530B10098
:100428008431E7248031782B00302000B000003080
:10043800AF002D30AE008530AD000030B400003084
:10044800B3003430B2006A30B1008431E72480311F
:10045800782B00302000B0000030AF003430AE0000
:100468006A30AD000030B4000030B3003B30B20059
:100478000430B1008431E7248031782B003020002B
:10048800B0000030AF003B30AE000430AD000030AB
:10049800B4000030B3004530B2001130B1008431EF
:1004A800E7248031782B00302000B0000030AF0006
:1004B8004530AE001130AD000030B4000030B3005C
:1004C8005030B200CF30B1008431E7248031782B2E
:1004D80000302000B0000030AF005030AE00CF3008
:1004E800AD000030B4000030B3005C30B2007A30A8
:1004F800B1008431E7248031782B00302000B0002F
:100508000030AF005C30AE007A30AD000030B4008F
:100518000030B3006330B2000030B1008431E7240A
:100528008031782B00302000B0000030AF006330FD
:10053800AE000030AD000030B4000030B3006D30C4
:10054800B200A030B1008431E7248031782B00302C
:100558002000B0000030AF006D30AE00A030AD001C
:100568000030B4000030B3007830B200AF30B100D2
:100578008431E7248031782B00302000B00000302F
:10058800AF007830AE00AF30AD000030B4000030BE
:10059800B3008230B2001430B1008431E7248031D6
:1005A800782B00302000B0000030AF008230AE0061
:1005B8001430AD000030B4000030B3008D30B2000C
:1005C8004F30B1008431E7248031782B003020008F
:1005D800B0000030AF008D30AE004F30AD000030BD
:1005E800B4000030B3009630B2007230B1008431EC
:1005F800E7248031782B00302000B0000030AF00B5
:100608009630AE007230AD000030B4000030B30058
:10061800A430B200C830B1008431E7248031782B8F
:1006280000302000B0000030AF00A430AE00C83069
:10063800AD000030B4000030B300B130B20010306B
:10064800B1008431E7248031782B00302000B000DD
:100658000030AF00B130AE001030AD000030B40053
:100668000030B300BB30B2006830B1008431E724F9
:100678008031782B20005708423E86008701010808
:10068800303A0319D929013A0319EE29033A031913
:10069800032A013A0319182A073A03192D2A013A9D
:1006A8000319422A033A0319572A013A03196C2AF3
:1006B8000F3A0319812A013A0319962A7D3A031938
:1006C800FF2A013A0319D52A083A0319142B033AC9
:1006D8000319AB2A1D3A0319C02A043A0319EA2A56
:1006E8000F3A0319292B782B01302000D707003047
:1006F800D83D2000EE08031D892BEE08031D0800D5
:100708000C1A08006D08031908005808803ABF0041
:1007180080303F02031D922B15305702031CCB2952
:100728002000080000302000E0000030DF00BB306F
:10073800DE006830DD000030E6000030E500003003
:10074800E4000030E30087310C27833100302000BB
:10075800A3000030A200BB30A1006830A0008531A2
:100768005925833120000C1ECA2B24009512220023
:100778000E08FF39D7392000D9000E08590600396C
:1007880059068E0022000E15FA01080087314C2701
:1007980083312000D900DA01DB01DC015C08E600C6
:1007A8005B08E5005A08E4005908E3006308D9002B
:1007B8006408DA006508DB006608DC000830D93513
:1007C800DA0DDB0DDC0D890BE32B5C08E6005B081A
:1007D800E5005A08E4005908E30087314C278331C3
:1007E8002000D900DA01DB01DC015908E3075A08C7
:1007F800E43D5B08E53D5C08E63D6308D900640814
:10080800DA006508DB006608DC000830D935DA0D47
:10081800DB0DDC0D890B0A2C5C08E6005B08E500A3
:100828005A08E4005908E30087314C278331200037
:10083800D900DA01DB01DC015908E3075A08E43D75
:100848005B08E53D5C08E63D87314C278331200095
:10085800D90059082100D40087314C278331200062
:10086800D90059082100D50087314C278331200051
:10087800D90059082100D60087314C278331200040
:10088800D9005908EC0087314C2783312000D90062
:1008980059082100D70087314C2783312000D9001F
:1008A80059082100D80087314C2783312000D9000E
:1008B80059082100D90087314C2783312000D900FD
:1008C8005908F900FA01FA0AA02C333068066904BD
:1008D8000319832C6808013ED9000030693DDA000D
:1008E8006B085A06031D7A2C6A085906003003194A
:1008F8000130DB00DC015B08E1005C088D2C6B0833
:100908006A04003003190130D900DA015908E100FE
:100918005A08E20062086104031DA02C0130DD07BB
:100928000030DE3D0030DF3D0030E03D87314C27B0
:1009380083318631CB2683312000EE08031DAB2C92
:10094800EE0803190C1ABF2C6D080319BF2C660892
:10095800803AD9006008803A5902031DBD2C5F080F
:100968006502031DBD2C5E086402031DBD2C5D08D5
:1009780063020318692C22000E152000EE08031DDF
:10098800CC2CEE0803190C1AD42C6D080319D42C9E
:1009980069086B06031DD22C68086A06031DC12C62
:1009A800803150202400951222000E08FF39D739D3
:1009B8002000D9000E085906003959068E00220079
:1009C8000E15FA01080020003008BC002F08BB00F3
:1009D8002E08BA002D08B900FA01FA0A3008A30057
:1009E8002F08A2002E08A1002D08A0008531592546
:1009F8008431362D33302000680669040319192D17
:100A08006808013EB5000030693DB6006B0836063F
:100A1800031D102D6A083506003003190130B70090
:100A2800B8013708BD003808232D6B086A04003068
:100A380003190130B500B6013508BD003608BE00FF
:100A48003E083D04031D362D0130B9070030BA3D7C
:100A58000030BB3D0030BC3D87314C2784318631A6
:100A6800CB2684312000EE08031D412DEE08031922
:100A78000C1A552D6D080319552D3408803AB50008
:100A88003C08803A3502031D532D3B083302031DF1
:100A9800532D3A083202031D532D39083102031829
:100AA800FE2C22000E15FA01080020002008A400E0
:100AB8002108A5002208A6002308A7001030A800D6
:100AC800A737A60CA50CA40CA80B642D2408A90014
:100AD8002908AA002008A4002108A5002208A600C9
:100AE8002308A7000830A800A737A60CA50CA40C5B
:100AF800A80B782D2408A9002908AB002008A40019
:100B08002408AC0022000E1106302000A500303069
:100B1800A400A40B8D2DA50B8D2D000022000E1511
:100B280020000C1A08001A30A500F830A400A40B05
:100B38009B2DA50B9B2D000020000C1A08002200FD
:100B48000E11033087311E27853120002A0887318E
:100B58001E27853120002B0887311E27853120006C
:100B68002C0887311E2708002000A701A31FC32DCA
:100B7800A209A309A20A0319A30AA701A70AA51F84
:100B8800CE2DA409A509A40A0319A50A0130F80065
:100B98007808A706A801A901230822040319FD2D36
:100BA800A601A60AA31BE22D0130A235A30D890BCD
:100BB800D92D0130F8007808A607D62D0130A835C0
:100BC800A90D890BE32D23082502031DED2D22080D
:100BD8002402031CF42D2208A4022308A53B281490
:100BE8000130A336A20C890BF52D0130A602031D96
:100BF800E22D27080319052EA809A909A80A03192F
:100C0800A90A2908A301A3072808A201A207080026
:100C18002000A101F61F172EF509F609F50A031998
:100C2800F60AA101A10AF41F1E2EF309F409F30A1A
:100C38000319F40A740873040319452EA001A00AC5
:100C4800F41B302E0130F335F40D890B272E0130BB
:100C5800F7007708A007242E74087602031D362EA5
:100C680073087502031C3C2E7308F5027408F63BE2
:100C78000130F436F30C890B3D2E0130A002031D20
:100C8800302E210803194D2EF509F609F50A031926
:100C9800F60A7608F401F4077508F301F30708006B
:100CA8008731582786318631912686318631F92653
:100CB800863187310C27863187313F278631873146
:100CC800672786310B178B1722000E152400951203
:100CD80022000E08FF39D7392000E7000E08670602
:100CE800003967068E0022000E15873130278631BD
:100CF80020006D08031D0C1A862E83319623863139
:100D08002000ED016E0803198D2E8731602786318A
:100D180020008631B3268631772E21008C152300DA
:100D28008C1127009115921593018B1521000C1039
:100D38000C110C1623000C1221000C138C130D142B
:100D48008D140D158D110D128D1220008D1221009C
:100D58000E108E140E138E1320000E100800F401CE
:100D680021001708C1391A3897001714C42E01300A
:100D7800F3007308F407043074020318C82E6300E4
:100D88002000ED080319BB2E210017100800F400FD
:100D98007408F30020006808A03E860087017308E5
:100DA8008100333068066904031DDD2EE801E9017E
:100DB80008000130E8070030E93D080020006A0813
:100DC800A03E860087010108F0007008F10033306A
:100DD8006A066B04031DF32EEA01EB01F72E0130BE
:100DE800EA070030EB3D7108080021008C168C10D2
:100DF8002A001108FC3902389100111791172200B6
:100E080098121812F33098051810981799010800CD
:100E180021000E118E110E168E1222000E152400BE
:100E280095121508F0390138950015121417941306
:100E380095160800F70024001108F300F401730860
:100E4800F5007408F600200091117708240091003D
:100E58002000911908002C2F20000E1400320032B7
:100E68000032003220008E1C3C2FEE01EE0A3D2F8E
:100E7800EE010E1008008B120B112100951295112E
:100E88001514951015117130200095008B16080067
:100E980024009101141C4E2F1108F3007308F4006C
:100EA800200091117408080078302100990419086D
:100EB800FC3902389900080020008D1683319623EA
:100EC80020008D12080021001708C1391A38970030
:100ED80017100800640080010131890B6F2F00345E
:020000040001F9
:04000E00ECF9FFFE0C
:00000001FF
