:0400000080312C28F7
:100008007E14803120007F08F0000B198B1E2828F1
:100018000130F5070030F63D043075067604031DFF
:10002800272822008E1A1B2820008E161D28200043
:100038008E1222008E1B232820008E1725282000D0
:100048008E13F501F6010B117008FF007E100900F0
:1000580080312E28F501F6017E10200080313428E9
:1000680021008E0120008E018E168E13210015149A
:10007800951015159511951215128B160B178B17D0
:0200880044280A
:020000040001F9
:02000E00E7FF0A
:00000001FF
