:0400000080313C28E7
:100008007E14803120007F08F2000B1D20287A081A
:1000180003191C2848084C06031D142847084B06DA
:1000280003191C2882311B228031220099002000EC
:100038004830200095000B118B1D37282700931D91
:1000480037289311911D2F2820008C1D2F2801304F
:10005800C9000030CA002700921D372820008C19DB
:100068003728C901CA0172082000FF007E10090064
:1000780080313E28FA0141308400003085000F307D
:100088008231B1228031A0308400003085003330C5
:100098008231B1227E1020008131B3290030200046
:1000A800B6000030B5000030B4000030B300823133
:1000B80057228031FA01FA0A00302000A3000030EC
:1000C800A2000030A1000030A000813162218031FF
:1000D8008231852280312000AF00B001B101B20128
:1000E8003208BC003108BB003008BA002F08B9003C
:1000F8003908AF003A08B0003B08B1003C08B2002C
:100108000830AF35B00DB10DB20D890B8528320816
:10011800BC003108BB003008BA002F08B900823192
:10012800852280312000AF00B001B101B2012F0853
:10013800B9073008BA3D3108BB3D3208BC3D390823
:10014800AF003A08B0003B08B1003C08B2000830E4
:10015800AF35B00DB10DB20D890BAC283208BC001B
:100168003108BB003008BA002F08B9008231852257
:1001780080312000AF00B001B101B2012F08B907EA
:100188003008BA3D3108BB3D3208BC3D823185227A
:1001980080312000AF002F08C400823185228031D1
:1001A8002000AF002F08C500823185228031200051
:1001B800AF002F08C6008231852280312000AF00B1
:1001C8002F08CE008231852280312000AF002F0811
:1001D800C1008231852280312000AF002F08C20083
:1001E8008231852280312000AF002F08C300823180
:1001F800852280312000AF002F08CD003A29333006
:100208004706480403191D294708013EAF0000307E
:10021800483DB0004C083006031D14294B082F0632
:10022800003003190130B100B2013108B7003208BB
:1002380027294C084B04003003190130AF00B001E6
:100248002F08B7003008B80038083704031D3A29CA
:100258000130B3070030B43D0030B53D0030B63D45
:100268008231852280318231042280312000CF08FA
:10027800031D4629CF0803190C1A5A294A084904AC
:1002880003195A293C08803AAF003608803A2F02F1
:10029800031D582935083B02031D582934083A0222
:1002A800031D58293308390203180329240095121D
:1002B80020008E1222000E15FA01080020002008E6
:1002C800A4002108A5002208A6002308A7001030D2
:1002D800A800A737A60CA50CA40CA80B6D29240808
:1002E800A9002908AC002008A4002108A5002208BC
:1002F800A6002308A7000830A800A737A60CA50C5D
:10030800A40CA80B81292408A9002908AD002008FD
:10031800A4002408AE00823169228131013920000D
:10032800A400A5012408AA002508AB002B082A046C
:10033800031D8F2922000E1103308231452281319D
:1003480020002C0882314522813120002D0882317D
:100358004522813120002E08823145220800823151
:100368009B2281318131E5218131823132228131F3
:100378008231572281318231782281318231AA2219
:1003880081310B178B1722000E15240095122000BF
:100398008E1222000E1582319122813120004A08E6
:1003A80049040319DD298031522081312000C90117
:1003B800CA014F080319E3298231A322813163005E
:1003C800CD2921008C1523008C1127009115921539
:1003D80093018B1521000C100C110C160C138C13A7
:1003E8000D148D140D158D110D128D1220008D1206
:1003F80021000E108E140E138E1320000E1008000C
:10040800F4007408F30020004708A03E8600870126
:1004180073088100333047064804031D162AC701B4
:10042800C80108000130C7070030C83D0800200097
:100438004B08A03E860087010108F0007008F10013
:1004480033304B064C04031D2C2ACB01CC01302A37
:100458000130CB070030CC3D7108080021008C1614
:100468008C102A001108FC390238910011179117D5
:10047800220098121812F33098051810981799014D
:100488000800F70024001108F300F4017308F500D0
:100498007408F600200091117708240091002000CC
:1004A80091190800532A21000E118E110E168E1272
:1004B80022000E15240095121508F0390138950010
:1004C8001512141794139516080022000E11053002
:1004D80082314522823182318522F8007808F9007C
:1004E80022000E15790808008B120B1121009512B5
:1004F80095111510951015114830200095008B1690
:10050800080024009101141C872A1108F3007308BD
:10051800F400200091117408080020000E148E1CAD
:10052800982ACF01CF0A992ACF010E1008007830F7
:10053800210099041908FC390238990008002000A4
:100548008D168031522020008D12080021001708D6
:10055800C1391A389700171008006400800101316A
:06056800890BB22A0034E9
:020000040001F9
:04000E00ECF9FFFE0C
:00000001FF
